:10000000C5C50000EBC50000E9C50000E7C500005C
:10001000E5C50000E3C50000E1C50000DFC5000044
:10002000DDC50000DBC500000C94D0220C943F23FA
:10003000D5C50000D3C50000D1C50000CFC5000064
:10004000CDC50000CBC50000C9C50000C7C5000074
:10005000C5C50000C3C50000C1C500000C947125D2
:10006000BDC500000C94E1250C94BB25B7C500006C
:10007000B5C50000B3C50000B1C50000AFC50000A4
:10008000ADC50000ABC50000A9C50000A7C50000B4
:100090000C941326A3C50000A1C500009FC5000055
:1000A0009DC500009BC5000099C500000000000030
:1000B0000000000000000000000000000000000040
:1000C0000000000000000000000000000000000030
:1000D000000000010000000101000100000000001C
:1000E0000000000000000000000000000000000010
:1000F00000000000000000020000030000000000FB
:1001000001000001000000010000010000000000EB
:1001100000000000000000000000000000000000DF
:1001200003000000000000020000030000000000C7
:1001300001000001000000010000010000000000BB
:1001400000000000000000030000000000020000AA
:100150000300000000000002000003000000000097
:10016000010000010000000100000100000000008B
:100170000000020000000300000000000200000375
:10018000000000000000020000000300000000006A
:10019000010000010000000100000100000000005B
:1001A000000000000000000000000002000000034A
:1001B000000000000000020000030000000000003A
:1001C0000100000300000000010001000000000029
:1001D0000000020000000000000000000200030018
:1001E000000000000000020000030000000000000A
:1001F00001000003000000010000000104040404E9
:1002000004040404020404040404040404020404B2
:1002100004040404040404030303010104040404A7
:1002200001040404040404010404040400000000A4
:1002300000000000020000000000000000020000BA
:1002400000000000000000020303030101000000A1
:10025000010000000000000100000000000000009C
:10026000000000020000000000000000000200008A
:10027000000000000000000200000100000000007B
:10028000010000000000000100000000000000006C
:10029000000000000000000000000002000000005C
:1002A0000000000000000200000001030000000048
:1002B000010000000000000001000000000000003C
:1002C000000002000000000000000000020000002A
:1002D0000000000000000002000101030303000011
:1002E000010000000000000100000000000000000C
:1002F00000000000020000000003000000020000F7
:1003000000030000000000020000010000000000E7
:1003100001000100000000010000000000000000DA
:1003200000000000000200000300000000020000C6
:1003300003000000000000020000030000000000B5
:1003400001000001000000010001000000000000A9
:100350000000000000000200000000000000020396
:100360000000000000000000020003000000000088
:100370000100000100000001000001000404040469
:100380000404040403040402040404040404030233
:100390000404040404040404020304040404040420
:1003A0000104040104040104040404010000000029
:1003B0000000000003000002000000000000030233
:1003C0000000000000000000020300000000000028
:1003D0000100000100000100000000010000000019
:1003E0000000000000030200000000000000020303
:1003F00000000000000000000203000000000000F8
:1004000001000001000000010000010000000000E8
:1004100000000000020000030000000000020000D5
:1004200003000000000000020000030000000000C4
:1004300001000001000000010000010000000000B8
:1004400000000000020000000000000000020000A8
:100450000300000000000002000003000000000094
:100460000100000100000001000001000000000088
:10047000000000000000000000000000000200007A
:10048000000000000000000200000000000000006A
:100490000100000100000001000001000000000058
:1004A000000000000000000000000000000000004C
:1004B000000000000000000000000000000000003C
:1004C0000100000100000001000001000101000026
:1004D0000101000101000001010000000101000014
:1004E0000101000000000101000001010000000105
:1004F00001010101010000010101010000000000F3
:1005000000000001010000010100000101010101E2
:1005100001010100000001010101010100000000D2
:1005200001010101000000000101000000010101C2
:1005300001000000000101000000000000000101B6
:1005400000000000000000000101000000000000A9
:100550000001010000000001010101000000000095
:100560000001000000000001000100000100000087
:100570000100000101010001000100000000000075
:100580000100010000000000010000000000010166
:100590000000010001010101000101000000010152
:1005A0000000000101010001010101000101010140
:1005B0000101010101010101010101010407000123
:1005C000030178000701010301780007020103011C
:1005D0007800070301030178000704010301780094
:1005E00007050103017800070601030178000707EA
:1005F00001030178000708010301780007090103DE
:10060000017800050101960004019600000604032C
:100610000001F4010401F4010603030009210009AB
:10062000180001F401040604030006020364090E25
:1006300000090F0009160009170001F4010E040655
:1006400003030009210009180006020364090E00D3
:10065000090F0009160009170006010314090D000F
:10066000090C0009070009060001F401040604034F
:100670000006020364090E00090F0009160009179D
:100680000006010314090D00090C00090700090602
:10069000000600030C090000090100090400090517
:1006A0000001F40110000A05021101FA000A060215
:1006B0001101FA000A07021101FA000A08021101E9
:1006C000FA000A09021101FA000A0A021101FA00ED
:1006D0000A0B03110164000A09021101FA000A0C55
:1006E000021101FA000A0D021101FA000A0E0211AC
:1006F00001FA000A0F021101FA000A10021101FAB0
:10070000000A11021101FA000A12021101FA000A8C
:100710001303110164000A14021101FA000A150200
:100720001101FA000A16021101FA000A170211015A
:10073000FA000A18021101FA000A19021101FA005E
:100740000A1A021101F4010007000501070505005E
:100750000128020700050007050501012802000A1B
:1007600003001101F4010401F4010A03001101F472
:10077000010401F4010A03001101F4010401F40170
:10078000000A020001F4010401F4010A030001F46B
:10079000010401F4010A040001F4010401F4010060
:1007A0000CDCFA020501010D06020801010CDCFA5D
:1007B000020401010D06020801010CDCFA020B0122
:1007C00001000B030501960004019600000A0101D7
:1007D0000921020164000A01010920020164000AE2
:1007E00001010910020164000A0101091E020164ED
:1007F000000A01010924020164000A0101092D0215
:100800000164000A01010926020164000A010109CC
:100810001C020164000A01010914020164000A01BA
:10082000010908020164000A0101090502016400CE
:100830000A01010906020164000A01010917020107
:100840006400000A00000101000008000500020128
:10085000FA0010080505000201FA0010080505015C
:100860000201FA0010080005010201FA001000045C
:100870000F0700010201FA00040F0701010201FA4B
:1008800000040F0702010201FA00040F070301022E
:1008900001FA00040F0704010201FA00040F070522
:1008A000010201FA00040F0706010201FA00040F19
:1008B0000707010201FA00040F0708010201FA000C
:1008C000040F0709010201FA00040F0708010201E1
:1008D000FA00040F0707010201FA00040F070601DE
:1008E0000201FA00040F0705010201FA00040F07D4
:1008F00004010201FA00040F0703010201FA0004D7
:100900000F0702010201FA00040F0701010201FAB8
:100910000000040F0605030001F401040F060403A0
:100920000001F401040F0603030001F401040F06A3
:1009300002030001F401040F0601030001F40104A5
:100940000F0600030001F40100040F06000400017B
:100950004A00040F06010400014A00040F060204C5
:1009600000014A00040F06030400014A00040F06B8
:10097000040400014A00040F06050400014A0000B7
:100980000501017D0004017D00000501013C00041A
:10099000013C0000000000FFFFFFFF0000C8AA00AC
:1009A000CCCCCC8080809999990000CC9094971100
:1009B00000005555558C055C052C05FC04CC049CA9
:1009C000046C043C040C04DC03AC037C034C031CEB
:1009D00003EC02BC028C025C022C02FC01CC019CE8
:1009E000016C013C010C01DC00AC000208000000BD
:1009F000090A000000010002070001000207068A40
:100A00000918040080090F0400490939220012095D
:100A10000500006F080500004A08060001430800B1
:100A20000500CD07030001C2071E0401C207000034
:100A300001A00701000481070300015F0703000113
:100A400048072A2F01A6060000030D06040A01BC70
:100A50000503000104040404040400030303030366
:100A60000300000002020202020200000000010175
:100A7000010101010000000101010101010001016A
:100A80000101010100000000240027002A002D00C0
:100A90003000070605040100080A0B0C0D090000D0
:100AA0000000250028002B002E003100080B00025A
:100AB00002020000090400000102020000052400F7
:100AC0001001052401010104240206052406000189
:100AD0000705810310004009040100020A0000001C
:100AE00007050202400000070583024000000403DE
:100AF000090412010002EF0201404F1B069200019F
:100B000001020301537061726B46756E0053706190
:100B1000726B46756E2050726F204D6963726F0064
:100B2000000000002300260029002C002F000404F0
:100B30000404040304050202020204030202020286
:100B4000060606060606040402020204040408025D
:100B50000110408040102040804080080204018045
:100B600040201002011080102040402000000002B0
:100B700000090F0000030401000C00000000000049
:100B800000000000000000000000322711241FBEFA
:100B9000CFEFDAE0DEBFCDBF13E0A0E0B1E0E2ECE2
:100BA000F0E602C005900D92AC30B107D9F727E00E
:100BB000ACE0B3E001C01D92A938B207E1F715E03F
:100BC000C6ECD5E004C02197FE010E94992DC53CDA
:100BD000D107C9F70E94AC270C945F3011CACF939C
:100BE000DF93E091B801F091B901309709F482C028
:100BF0002091BA013091BB01121613060CF07AC095
:100C0000A5EEB5E070E060E0482F50E04F5F5F4F29
:100C10009181949FE001959FD00D1124DC939081E8
:100C2000949FE001959FD00D11241196DC931197AC
:100C30009281949FE001959FD00D11241296DC9330
:100C400012976F5F7F4F1396339626173707E1F69B
:100C5000822F880F820F2FB7F894E5EEF5E0982FDA
:100C6000319148E05C9A330F10F05C9803C00000AB
:100C70000000000000000000000000005C984A95A1
:100C800019F000000000EECF31919A9551F72FBF77
:100C90009AE0899F90011124213084E0380750F1B7
:100CA0008091E3059091E4059450820F931F9093F7
:100CB000E4058093E305883E23E09207B8F0885E60
:100CC00093404091DF055091E0056091E1057091FE
:100CD000E2054F5F5F4F6F4F7F4F4093DF055093AB
:100CE000E0056093E1057093E205E5CF9093E4059C
:100CF0008093E305DF91CF9108958091BC016FCF80
:100D0000CF93DF9396E0899FF0011124AF0155271F
:100D10003FEF349FC001359F900D1124CFEFD0E0FD
:100D2000BE010E94722DAE01461B570B349FC001BD
:100D3000359F900D1124BE010E94722D262FCF01E8
:100D400080959095839FC0011124BE010E94722D51
:100D5000AE01461B570B349FC001359F900D1124E7
:100D6000BE010E94722DEF2FFF2790E07FEF862FAC
:100D7000E230F105B9F050F4309789F0922F7FEF0F
:100D8000319779F09FEF70E0822F0CC0E330F105CE
:100D900069F0962F70E03497A9F78FEF03C09FEFAB
:100DA000762F80E0692FDF91CF91089590E0722F28
:100DB000F4CF909147058D3079F4903618F08FE597
:100DC00080934705E0914705F0E0E951FB4F108221
:100DD0001092470581E008959F3540F4E92FF0E037
:100DE000E951FB4F80839F5F9093470580E0089512
:100DF0009091E404911103C08FEF9FEF08954FB7D6
:100E0000F89492E09093E9009091F200292F30E05D
:100E10001216130614F421E030E0232B31F0289849
:100E200084E68093E3048091F100992339F02091C6
:100E3000F200211103C02BE62093E8004FBF992355
:100E4000D9F290E008952FB7F89483E08093E900F9
:100E50009091E800892F807295FF04C09091F20074
:100E600080E4891B2FBF08958091DB0481110DC0A0
:100E700082E08093D70484E08093D8041092DA044F
:100E80001092D90481E08093DB0487ED94E008950B
:100E9000A1E0B0E0EEE4F7E00C94B52D6983DC014D
:100EA000ED91FC910280F381E02D41E050E0BE0124
:100EB0006F5F7F4F09952196E2E00C94D12D83E07E
:100EC0008093E9008091F200882319F08AE38093EF
:100ED000E8000895B8DF90E00895FC0184859585C9
:100EE00097FD05C02FEF3FEF35872487089580CF0A
:100EF000CF93DF93EC018C859D8597FF03C078DF4E
:100F00009D878C878C859D85DF91CF910895FC010D
:100F10008485958597FD0BC09FB7F89482E08093F8
:100F2000E9008091F2009FBF90E0019608959FB77D
:100F3000F89482E08093E9008091F2009FBF90E0F6
:100F400008954091D1045091D2042091CF04309162
:100F5000D00442175307B4F49091E8009570E1F380
:100F60009091E80092FD19C08093F1008091D10426
:100F70009091D20401968F739927892B19F48EEFE3
:100F80008093E8008091D1049091D20401969093CF
:100F9000D2048093D10481E0089580E00895EF9217
:100FA000FF920F931F93CF93DF93F82E192FE62E06
:100FB000042F81E0860F880FC4DF83E0C2DFCF2DCE
:100FC000D12FEC0EFD2EF11CCE15DF0599F007FF99
:100FD0000FC0FE018491B5DF182F80E0B2DF8123BE
:100FE00021968111F1CFCDB7DEB7E6E00C94CD2D7F
:100FF0008881F1CF81E0F7CFB0E0A0E0E2E0F8E057
:101000000C94B02DD82E8A01EB017B01E40EF51E65
:10101000CE15DF0551F0D7FE0EC0FE01849191DFA1
:1010200021968111F5CF0FEF1FEFC801CDB7DEB7C5
:10103000E7E00C94CC2D8881F2CFA1E0B0E0E3E2B0
:10104000F8E00C94B32D82E0898342E450E06CEA2E
:101050007AE080E8D1DF08DFDC0112960D911C9167
:101060000115110589F0D801ED91FC910280F38101
:10107000E02DBE016F5F7F4FC801099597FD04C049
:10108000F80100851185ECCF89812196E4E00C946C
:10109000CF2D615030F02091F100FC0120830196AA
:1010A000F8CF289884E68093E304089581508F3028
:1010B00008F047C0E82FF0E0E05AF74F0C94992D64
:1010C0007D0881086F0875087908A108A108A108A2
:1010D00084088A088E0892089808A1089C088091C4
:1010E00080008F77809380000895809180008F7DAD
:1010F000F9CF80918000877FF5CF84B58F7784BD4D
:10110000089584B58F7DFBCF809190008F77809379
:1011100090000895809190008F7DF9CF809190008C
:10112000877FF5CF8091C0008F778093C0000895AE
:101130008091C0008F7DF9CF8091C200877F80931E
:10114000C2000895CF93DF93EAE7FBE08491EBE5DB
:10115000FBE0D491ECE3FBE0C491CC2399F0811146
:10116000A5DFEC2FF0E0EE0FFF1FE05EF44FA5913E
:10117000B491EC91ED2381E090E009F480E0DF91FF
:10118000CF91089580E090E0FACF1F93CF93DF9343
:10119000282F30E0F901E459F44F8491F901E35B21
:1011A000F44FD491F901E25DF44FC491CC23A1F046
:1011B000162F81117BDFEC2FF0E0EE0FFF1FE256C0
:1011C000F54FA591B4918FB7F894EC91111108C027
:1011D000D095DE23DC938FBFDF91CF911F910895CF
:1011E000DE2BF8CF3FB7F8948091CB049091CC04DC
:1011F000A091CD04B091CE0426B5A89B05C02F3F89
:1012000019F00196A11DB11D3FBFBA2FA92F982F2C
:101210008827BC01CD01620F711D811D911D42E027
:10122000660F771F881F991F4A95D1F70895CF92AF
:10123000DF92EF92FF92D6DF6B017C01D3DF6C1956
:101240007D098E099F09683E734081059105B0F3C1
:10125000FF90EF90DF90CF900895B0E0A0E0E3E33F
:10126000F9E00C94AD2D6C017B018A018091A801FD
:10127000882309F455C08091E404882309F450C000
:101280008091D60480FF05C08091E0008260809349
:10129000E000E801B12C8AEFA82E209711F4BB20C2
:1012A000C1F1D1DD811105C0AA94AA20C9F1BFDF27
:1012B000F4CF8C171D0611F00CF08C2F9FB7F8940B
:1012C00023E02093E9002091E80025FD02C09FBFA4
:1012D000E4CF282F30E0C21BD30BF701815020F060
:1012E00041914093F100FACFE20EF31EBB2029F0AA
:1012F0008AE38093E800B12CEACF8091E80085FD75
:10130000E6CF8AE38093E800BB24B3942097F9F2F8
:10131000F2CF5D9884E68093D504101611063CF058
:1013200081E090E0F6019383828310E000E0C80141
:10133000CDB7DEB7EAE00C94C92D2FB7F8946091D1
:10134000DF057091E0058091E1059091E2052FBFE6
:1013500008950895CF93DF93AC01E0910004F091DC
:1013600001043097E1F09091FF038091FE039817FC
:10137000B0F090E0292F30E02617370754F4D90158
:10138000A859BC4F240F351FE90128812C939F5F7A
:10139000F1CFCB011092FF036093FE030995DF911B
:1013A000CF910895B0E0A0E0E8EDF9E00C94AD2D08
:1013B0006C017B018B01040F151FEB015E01AE1860
:1013C000BF08C017D10759F06991D601ED91FC9182
:1013D0000190F081E02DC6010995892B79F7C501AF
:1013E000CDB7DEB7EAE00C94C92DFC01538D448DD6
:1013F000252F30E0842F90E0821B930B541710F0C0
:10140000CF96089501970895FC01918D828D9817CC
:1014100061F0A28DAE0FBF2FB11D5D968C91928DA4
:101420009F5F9F73928F90E008958FEF9FEF0895D5
:10143000FC01918D828D981731F0828DE80FF11D9E
:10144000858D90E008958FEF9FEF0895FC01918DB9
:10145000228D892F90E0805C9F4F821B91098F73B2
:1014600099270895FC01A48DA80FB92FB11DA35A87
:10147000BF4F2C91848D90E001968F739927848FB4
:10148000A689B7892C93A089B1898C9182748C9399
:10149000938D848D981306C00288F389E02D808196
:1014A0008F7D80830895EF92FF920F931F93CF93C8
:1014B000DF93EC0181E0888F9B8D8C8D981317C092
:1014C000E889F989808185FF12C09FB7F894EE8979
:1014D000FF896083E889F9898081827480839FBF56
:1014E00081E090E0CDB7DEB7E6E00C94CD2DF62E8E
:1014F0000B8D10E00F5F1F4F0F731127E02E8C8DA7
:101500008E110BC00FB607FCFACFE889F9898081EC
:1015100085FFF5CFCE01A6DFF2CFEB8DEC0FFD2FCF
:10152000F11DE35AFF4FF0829FB7F8940B8FEA89C1
:10153000FB8980818062D2CFCF93DF93EC01888DCD
:101540008823B1F0AA89BB89E889F9898C9185FD46
:1015500003C0808186FD0CC00FB607FCF7CF8C91CD
:1015600085FFF2CF808185FFEDCFCE017BDFEACF13
:10157000DF91CF9108952091AE03260F3327331FBB
:1015800021323105ECF42091D203FC0190E080E09F
:10159000243069F082E00895A091AE032191AC015E
:1015A00042575C4FA40FB52FB11D2C93019686179F
:1015B00098F38091AE03680F6093AE0380E00895C6
:1015C00081E008951092D20381E08093D4031092B9
:1015D000D30361E082E0D9DD61E083E0D6DDE9EBB1
:1015E000F0E080818E7F808380818D7F808388E49E
:1015F0008093B80085E48093BC0008950895E0913D
:10160000FF038091FE03E81730F4F0E0E859FC4F47
:10161000808190E008958FEF9FEF08959091FF03F0
:101620008091FE032FEF3FEF981748F4E92FF0E089
:10163000E859FC4F208130E09F5F9093FF03C90180
:1016400008958091FE039091FF03891B990B0895E3
:10165000CF93DF93CB01EA01642F8DDFCE01DF91C1
:10166000CF910895A1E0B0E0E8E3FBE00C94B52D44
:10167000698361E0CE0101967EDF81E090E02196F2
:10168000E2E00C94D12D90E080E008958091E50493
:10169000882319F08091A90108958091E604882398
:1016A00019F08091AA01089580919C0108950F93EB
:1016B0001F9343DE009134031091350320913603CC
:1016C00030913703601771078207930770F080919C
:1016D000AB0181110AC01092380381E090E0909331
:1016E00076078093750710924D051F910F9108950D
:1016F0008091380381110CC08091AB01811108C029
:1017000081E090E0909376078093750710924D05E5
:1017100008958F929F92AF92BF92CF92DF92EF92F5
:10172000FF926B017C01C11481E0D806E104F10451
:1017300021F4C12CD12C7601E394FFDD4B015C0137
:10174000A8EEB3E0A70196010E94252D860E971EF4
:10175000A81EB91E8092340390923503A0923603DE
:10176000B0923703FF90EF90DF90CF90BF90AF9093
:101770009F908F900895CF92DF92EF92FF92DDDDE0
:1017800021E0C0903003D0903103E0903203F0901C
:1017900033036C157D058E059F0508F420E0822F2C
:1017A000FF90EF90DF90CF9008954F925F926F92ED
:1017B0007F928F929F92AF92BF92EF92FF920F9380
:1017C0001F938090090490900A04A0900B04B0909D
:1017D0000C0427013801481859086A087B0853018E
:1017E000420194E5891691E09906A104B10408F438
:1017F00047C080930804FB0180819181A28180937E
:101800006F0790937007A0937107E0920904F0921C
:101810000A0400930B0410930C04C901DA01873FFA
:10182000F9E09F07A105B10520F086EF99E0A0E05F
:10183000B0E08A3A9105A105B10520F48AEA90E06A
:10184000A0E0B0E08E0D9F1DA01FB11F8093C004CB
:101850009093C104A093C204B093C30481E0809329
:10186000C40480931D041F910F91FF90EF90BF90CF
:10187000AF909F908F907F906F905F904F90089562
:1018800080E0F1CF262F30E044E0359527954A954A
:10189000E1F76F702A3050F4205DFC0120836A303C
:1018A00038F4605DFC01618302960895295AF5CFF2
:1018B000695AF8CFA5E0B0E0E0E6FCE00C94B52D65
:1018C0009C01CB01E0E041E04E0F61E070E06C0F65
:1018D0007D1F6E0F711DFB016AE070E00E94722D8A
:1018E000805D8083CB01E42F009769F7D901542FE5
:1018F000552359F0515081E090E08C0F9D1F850FCA
:10190000911DFC0180818D93F3CFC901840F911D3E
:101910002596E2E00C94D12DCF93DF93EC01262F96
:101920008A81689FC0011124EFEFF0E0BF010E949F
:10193000722D362F8981289FC0011124BF010E947A
:10194000722D462F8881289FC0011124BF010E945B
:10195000722D742F832FDF91CF910895FC01718137
:10196000608182810895282F30E0ACE7B1E00E94C9
:10197000572D2FEF30E040E050E00E94352D80E9F8
:1019800091E0821B930B0895893C910514F088EC3B
:1019900090E00895A6E0B0E0E0EDFCE00C94A52D09
:1019A000FC0184819389992309F4BEC0C488D58839
:1019B000E688F788908122E0422E911141808823A9
:1019C00009F450C0258129831681078180855090B4
:1019D000060181115184818960900E048111628811
:1019E000808D712C8111718C2FEF3FEF992311F0B5
:1019F000228133813B832A8384A5882309F43FC055
:101A000035A53C8386A58823A9F127A52D8330A978
:101A10003E8341A982A962E1882331F083A994A978
:101A20006AE070E00E94722D809117049091180472
:101A30002CE031E0312C212C281639060CF0E4C0C2
:101A4000F9012E5E3F4FD90152978D909D90AD9038
:101A5000BC908C149D04AE04BF04BCF45FEF251A47
:101A6000350AEACF309172073983109173070091DC
:101A70007407ACCF402F1E8329812D83CBCF62E129
:101A800040E01E821D821C82CFCFC814D904EA0414
:101A9000FB0461F5C082D182E282F38244822A8112
:101AA0003B813683258339813783108701875286AE
:101AB000638674862C8125873D8136872E81278712
:101AC000408B618B909318048093170480E090E022
:101AD000A0E0B0E88093010190930201A09303017C
:101AE000B09304012696E2E10C94C12D8830910553
:101AF0004CF752E1589F9001599F300D1124245FFB
:101B00003E4F5C01225131092A143B040CF080C085
:101B100052E1F901D901529601900D925A95E1F7DF
:101B200051E0A51AB108EECF6A017B01FB83EA837D
:101B3000882349F0CF01059611DF609372077093F7
:101B4000730780937407EA81FB818085882319F0ED
:101B5000818580930601EA81FB818785882329F0AE
:101B6000808990E011DF80930001EA81FB81818907
:101B7000882319F0828980930E04EA81FB81808D8D
:101B8000882319F0818D80930501EA81FB81808192
:101B9000882379F0818180930901893041F4828121
:101BA000938197FD04C090930801809307011092E0
:101BB0000D04EA81FB818285882311F18385948558
:101BC000A585B6850097A105B105D1F08C0D9D1DA9
:101BD000AE1DBF1D8093190490931A04A0931B049B
:101BE000B0931C04C0920404D0920504E092060451
:101BF000F092070481E080931D041092C40472CF18
:101C000080E090E0DC01E6CF883091050CF05ACFFF
:101C100022E1229DF001239DF00D1124E45FFE4F8F
:101C2000C082D182E282F38244822A813B81368360
:101C300025833981378310870187528663867486AE
:101C40002C8125873D8136872E812787408B618BAC
:101C5000019638CFCF93DF93FC01A081B1818C91A5
:101C6000803221F097EF980F953020F41196B183D0
:101C7000A083F3CF91E08D3209F090E0EB019883DF
:101C80008D3219F08C918B3219F41196B183A083A7
:101C900060E070E0CB01A081B1812C9120532A300B
:101CA00030F59D012F5F3F4F31832083CC916A39FE
:101CB000D9E97D078D07D9E19D07A8F4C05369399B
:101CC00029E97207820729E1920711F4C63058F416
:101CD000AAE0B0E09B01AC010E94252D6C0F711DA4
:101CE000811D911DD8CF6FEF7FEFCB01D4CFDF9156
:101CF000CF910895A3E0B0E0E0E8FEE00C94B52DAC
:101D00009B838A83BE016F5F7F4FCE010296A2DF65
:101D1000298197FF0BC06FEF7FEF8FEF9FE72223A3
:101D200071F060E070E080E090E809C0222339F0B3
:101D300090958095709561957F4F8F4F9F4F23961B
:101D4000E2E00C94D12DA3E0B0E0E9EAFEE00C94CF
:101D5000B52D9B838A83BE016F5F7F4FCE010296B4
:101D600079DF2981222339F09095809570956195CE
:101D70007F4F8F4F9F4F2396E2E00C94D12DACE024
:101D8000B0E0E5ECFEE00C94B32D8A0166307105FD
:101D900028F480E02C96E4E00C94CF2DFC019E0109
:101DA0002F5F3F4FAC014A5F5F4F819190ED980FDD
:101DB0009A3000F5082E000C990BC097D9018D932D
:101DC0009D939D01E417F50781F789818295807FB6
:101DD0009B81890FF80180838D818295807F9F810F
:101DE000890F818389858295807F9B85890F828376
:101DF00081E0D0CF9FE9980F963030F4082E000C88
:101E0000990B87559109DACF9FEB980F963008F61A
:101E1000082E000C990BC797D1CF20910E0321FDFE
:101E20000DC020911003222349F0FC0184918111FF
:101E300005C0809138038150809338030895CF9373
:101E4000DF93EC0123DC0E94EF0577DA6C0F7D1F36
:101E5000811D911D60933003709331038093320391
:101E600090933303DF91CF9108956CD9892B39F08A
:101E70006091800770918107809182070895609139
:101E80007707709178078091790708955BD9892B3E
:101E900039F06091830770918407809185070895D8
:101EA00060917A0770917B0780917C0708954AD9E9
:101EB000892B39F060918607709187078091880798
:101EC000089560917D0770917E0780917F07089546
:101ED0008E3F21F020F48D3F19F4E9CFD7CFC5CF45
:101EE00093E0899FB00111246C56764FFB01329626
:101EF000849131979491FB016491792F0895CF9348
:101F0000DF93DA0151E0211101C050E0EC01E881DA
:101F1000EE2329F0E29FF0011124E52FEF0FEC01F1
:101F2000E883FB018081882329F0829FC00111246E
:101F3000852F890FEB0188838C91882329F0829F5C
:101F400090011124852F830F8C93DF91CF910895F9
:101F50008091B8019091B901009769F02091BA0180
:101F60003091BB01A901440F551F420F531F70E070
:101F700060E00C944A300895B0E0A0E0E2ECFFE0AD
:101F80000C94A72DEC01188219821A821B821C82E4
:101F90001D821E821F8218868091AC01882309F45D
:101FA00067C0E090AD01F090AE01E114F10409F4D6
:101FB0005FC08091AF019091B001A091B101B0914B
:101FC000B2018A019B01081B190B2A0B3B0BC901AB
:101FD000B8010E94E02E4B015C01B70190E080E067
:101FE0000E94DE2E9B01AC01C501B4010E94E72FC7
:101FF00020E030E64AE657E40E94452E6B017C0162
:102000000E941B2F2B013C010E94AD2E8090B40139
:102010009090B501A090B601B090B701860E971EC2
:10202000A81EB91E88829982AA82BB82A30192014E
:10203000C701B6010E94DC2D6C837D838E839F8354
:102040008091B301811101C084E0C82ED12CF12C04
:10205000E12CC501B401A70196010E94092D6C0D68
:102060007D1D8E1D9F1DA70196010E94092D688769
:10207000CE01CDB7DEB7E0E10C94C32DCF92DF9255
:10208000EF926A01E62E26E0829FC001112470E0E3
:1020900060E0FB01E80FF91FEE50FE4F20812F3F5B
:1020A00069F0022E000C330BF901EE0FFF1FE20F57
:1020B000F31FE15BFA4FC082D182E2826F5F7F4FF4
:1020C0006630710531F7EF90DF90CF900895CF9390
:1020D000C0914C0580914E05882381F010924E05E9
:1020E00081E080934D05CC2381F06091480570918B
:1020F000490580914A0590914B050BDB29DF0E9431
:102100007D06C111D4DACF91089522DF0E947D06A9
:10211000FACFCF92DF92EF92CF936B01E82EC0916E
:102120004C0580914E05882381F010924E0581E088
:1021300080934D05CC2349F0609148057091490585
:1021400080914A0590914B05E4DAEFE4F5E0C19205
:10215000D192E19285E0EF3DF807C9F797DA0E9446
:10216000EF05C111A4DACF91EF90DF90CF900895E1
:102170002F923F924F926F927F928F929F92AF9247
:10218000BF92CF92DF92EF92FF920F931F93CF9364
:10219000DF93CDB7DEB76E970FB6F894DEBF0FBEF4
:1021A000CDBF3C011A01462E0C8F1D8F2E8FB09093
:1021B0004C0580914E05882381F010924E0581E0F8
:1021C00080934D05BB2049F0609148057091490509
:1021D00080914A0590914B059CDA8C8D9D8DAE8D3A
:1021E00089839A83AB832C823D824E82CF82D886AC
:1021F000E9868A869B86AC868AA99BA9ACA98D872D
:102200009E87AF878DA99EA9AFA9888B998BAA8B32
:1022100088AD99ADAAAD8B8B9C8BAD8B8BAD9CADF6
:10222000ADAD8E8B9F8BA88F21968DAD9EADAFAD42
:102230002197898F9A8FAB8F2CEE31E066EE71E09B
:1022400040EE51E0F0E0E0E0D901AD909D018F015A
:102250006F01CC0CDD1CCE0EDF1E90E080E0F8019B
:10226000E80FF91FDB01FC908F1524F5F301EA0D4F
:10227000F11DA7FCFA95E491E930B8F4DC01AA0F4E
:10228000BB1FA80FB91FAC0DBD1DA15BBA4FF0E07D
:102290007F01EE0CFF1CEE0DFF1DEC0FFD1F2180DA
:1022A000328043802D923D924C92DA01EC91AE0E39
:1022B0000196D5CF6F5F7F4F4F5F5F4FB1E0223FF9
:1022C0003B0709F0C1CFB110F2D96E960FB6F89462
:1022D000DEBF0FBECDBFDF91CF911F910F91FF9059
:1022E000EF90DF90CF90BF90AF909F908F907F90B6
:1022F0006F904F903F902F900895CF92DF92EF9282
:10230000FF926B017C010E94792CA70196010E942B
:10231000092DFF90EF90DF90CF9008954F925F923C
:102320006F927F928F929F92AF92CF92DF92EF92B5
:102330000F931F93CF93DF9300D000D000D0CDB781
:10234000DEB769837A838B839C834D8328013901AF
:1023500080914E05882359F110924E0581E08093BB
:102360004D05442309F4EDC04093380380914C059A
:10237000411451046104710409F4E7C08111E8C0FB
:10238000C301B201C6D9A3DE80911D0481110FC023
:102390000CE113E066E070E080E090E0AEDFF80171
:1023A000619371938F01F3E000331F0799F7109247
:1023B0003E0310923D03DFD9882309F487C01F92A2
:1023C0001F921F921F921F921F921F921F921F9285
:1023D0001F921F921F921F921F928FEF8F9388243C
:1023E0008A947CE8972EA12CCC24CA94E7EDDE2EAB
:1023F000E12C00E010E020E040E050E860E084E5FF
:102400009AE0B6DE0CE113E022EF31E00FB6F8946B
:10241000DEBF0FBECDBFD80190E080E0F901E80F2C
:10242000F91FE081EF3F99F04D915C91119784176E
:1024300095076CF44E2FEE0F550BFA01EE0FFF1FB0
:10244000E40FF51FE15BFA4F1082118212820196B0
:102450008630910519F712962A5F3F4F52E02E32CF
:102460003507D1F681E090E090933E0380933D03E1
:1024700080911D04811125C062E070E080E090E051
:102480003CDF6E8362E070E080E090E036DF6F5FFB
:102490007F4F8F4F9F4F70E08E81F801813009F0A0
:1024A00065C080819181680F791F673071050CF0DC
:1024B00058C0718360830E5F1F4FF3E000331F0726
:1024C000D9F68091380381508093380380913D0381
:1024D00090913E03892BA9F0D9D80E94EF050E9464
:1024E0009D0929813A814B815C81620F731F841F92
:1024F000951F609330037093310380933203909360
:102500003303452846284728D1F580914C05811191
:1025100036C03D813111ECD826960FB6F894DEBF57
:102520000FBECDBFDF91CF911F910F91EF90DF9044
:10253000CF90AF909F908F907F906F905F904F90D3
:10254000089582E08093380311CF882309F41BCFCC
:10255000609148057091490580914A0590914B051D
:1025600011CF86E090E091838083A5CF8081918117
:10257000861B970B97FFF7CF118210829CCF97D8BD
:10258000CBCF8F929F92AF92BF92CF92DF92EF927A
:10259000CF93C82F6A01E62EC15040F166E070E08B
:1025A00080E090E0AADE4B016AE070E080E090E01D
:1025B000A4DE26E0269FA001279F500D1124BA011A
:1025C0006E507E4F680D791DFB0180818F3F21F396
:1025D000082E000C990BFC01EE0FFF1FE80FF91FEE
:1025E000E15BFA4FC082D182E282D6CFCF91EF90E9
:1025F000DF90CF90BF90AF909F908F9008952F92D3
:102600003F924F926F927F928F929F92AF92CF9212
:10261000DF92EF92FF920F931F93CF93DF9300D03F
:1026200000D0CDB7DEB790914E05992309F443C091
:1026300010924E0591E090934D0525E0829FC001D8
:102640001124FC01E150F64F25913491309314038D
:10265000209313033093120320931103FC01EF5FC7
:10266000F54F249120931003FC01EE5FF54F649128
:1026700060930F038D5F954FFC01F491F983F09304
:102680000E0310920D0310920C0320933803F2FFF7
:102690002CC010924C05662341F070E090E080E081
:1026A00038D880914C05811126C0298120FF03C0B4
:1026B0004FDC0E947D0680910C03811124C15BD800
:1026C000209113033091140381118CC280910F0368
:1026D0008111B6C280914C058111B2C28091100364
:1026E000882309F41CC104D81AC16623D1F2809151
:1026F0004C05882391F260914805709149058091BD
:102700004A0590914B0505D8D0CF22DC6AC2C90199
:1027100002969A838983F3018491DADB9B01482F27
:10272000EFE4F5E08FED95E02193319341938E171F
:102730009F07D1F769807A8054C270921203609229
:10274000110370921403609213034BC20E947D0622
:1027500048C20E94460B0E94EF0543C2F301F49168
:10276000F983F90132968491390194E0690E711C64
:102770003196F490ADDB6B01E82EF981EF2FF0E09C
:10278000EE50FE4FFA83E98310E000E0E981FA8120
:1027900080818F3FF1F0282F082E000C330BD901D8
:1027A000AA0FBB1FA20FB31FA15BBA4FCD92DD9240
:1027B000EC92FF2071F0F3E08F02C0011124AC0114
:1027C0004F5A5A4FBC01605B7A4F2F2D815B9A4F55
:1027D00096DB0F5F1F4F29813A812A5F3F4F3A8373
:1027E00029830A30110591F6FCC1F301F491F983B4
:1027F000F901329684918B83390194E0690E711C42
:102800003196849165DB6B01E82EEB81F981EF0F46
:10281000EB832B813981231709F4E3C1132F1F5F49
:102820006E2DA601832F2ADC1983F3CFF301F491D7
:10283000FB83F90132968491898331961491390191
:1028400095E0690E711C3196849142DB6B01E82E94
:1028500073E040E0112311F076E043E050E0E981BD
:10286000FB81EF0FE9832B813981231709F4B9C16B
:10287000622F6F5FE6E02E9FC0011124FA017E17E0
:102880001F06C1F0BCF0DF01A80FB91FAE50BE4F4C
:102890002C912F3F69F0022E000C330BD901AA0FA7
:1028A000BB1FA20FB31FA15BBA4FCD92DD92EC927A
:1028B0003196E5CF6B83D7CF2E5F3F4FF301F49175
:1028C000F9833901F301849190E03196E4919E2BD4
:1028D000B6DA80910D03811103C0F981F0930D03E5
:1028E00080910D03815080930D03811107C0C301B6
:1028F000029690931403809313038FDA80910C0354
:10290000882309F4E3CE8091AB01811108C081E0F6
:1029100090E0909376078093750710924D050F9085
:102920000F900F900F90DF91CF911F910F91FF901B
:10293000EF90DF90CF90AF909F908F907F906F90AF
:102940004F903F902F900895F3016490712CF901FE
:102950003296E4917E2AF90133966491062F10E0B5
:10296000C90105969A8389833196E4911E2B0E94B2
:10297000460B0E94EF0530E020E06301F12CE12CD2
:10298000C016D106E206F3065CF4C901B8016C1961
:102990007D098E099F09B1DCC60ED71EE81EF91EFF
:1029A0000E949D09C60ED71EE81EF91EC092300374
:1029B000D0923103E0923203F0923303E981FA813D
:1029C000F0931403E0931303CF0197CFC1DA709211
:1029D000140360921303C30190CFF301F491F983C0
:1029E000390183E0680E711CF90132968491998156
:1029F000492F50E0FA01EE0FFF1FE40FF51FE15BD6
:102A0000FA4FFA83E98364DAE981FA81608371839A
:102A10008283E7C0F30194913901F3E06F0E711CDA
:102A2000F90132962491E22F25E0E29FF001112472
:102A3000E551F64FFC83EB83E92FF0E0EE0FFF1F2B
:102A4000EB54F64F259134913A832983EB81FC8135
:102A5000349684913DDA162F072FF82EEB81FC81F6
:102A60003396849135DA4B01A82EEB81FC813296A6
:102A700084912EDA6B01E82EEB81FC8131968491F2
:102A800027DA1B01482EEB81FC81849121DAAB010E
:102A9000682F1F921F921F921F921F921F921F92C8
:102AA0001F921F921F921F921F92FF920F931F93CC
:102AB000242D810189819A815BDB0FB6F894DEBFFA
:102AC0000FBECDBF8EC0F301F491F983390183E0CD
:102AD000680E711CF90132968491FAD9AB01682F06
:102AE00089814FDD7EC0F30114913901F3E06F0E4F
:102AF000711CF901329604912FE435E03A83298361
:102B0000802F90E0B0E0A0E0C12ED12CF12CE12C80
:102B1000C816D906EA06FB065CF4BC01CD016C19A7
:102B20007D098E099F09E9DBC60ED71EE81EF91E36
:102B300049815A814E5F5F4F69817A816F5F7F4F14
:102B40002C2D89819A81DBD989819A8103969A8378
:102B500089838F5D9540A1F644C089010E5F1F4FA8
:102B6000F30164902FE435E03A832983662D70E009
:102B700090E080E0611571058105910509F0BDDBEC
:102B8000262FE981FA813081639FB00111246F3FC4
:102B9000710519F010F06FEF70E0E981FA81608340
:102BA0008181289FC00111248F3F910519F010F0F9
:102BB0008FEF90E0E981FA8181838281289FC001B3
:102BC00011248F3F910519F010F08FEF90E0E9810B
:102BD000FA8182833396FA83E983EF5DF54031F61B
:102BE0003801930139018FEF681A780AF901F491DD
:102BF000F983EF2FE150E131B0F4F0E0EE5FF94EF0
:102C00000C94992D62145C14A41485138713AE13CD
:102C1000F5131614ED140A1563157315AD159D13F0
:102C2000A613E614A91380910E0381FF04C081E06E
:102C300080930C0363CE6090110370901203D1CF88
:102C40000E94570B6CCEB0E0A0E0E9E2F6E10C94F4
:102C5000AE2D20917507309176072817390719F1A5
:102C6000909376078093750741E040934E058B3033
:102C7000910509F4F3C1BCF58530910509F4E0C173
:102C8000ECF48230910509F4D8C184F4009709F47A
:102C900064C0019709F467C03093760720937507E5
:102CA00010924E055BC010924E05E1CF8330910526
:102CB00009F4C6C1049781F78AE0C0C18830910544
:102CC00009F4C2C144F48630910509F4BBC10797E9
:102CD00019F78BE0B3C18930910509F4B7C10A97A0
:102CE000D9F683E0ABC18131910509F4BFC1C4F4C9
:102CF0008E30910509F4B6C144F48C30910509F485
:102D0000AFC10D9749F689E099C18F30910509F45B
:102D1000ABC1409709F660E870E880E8FAD91EC0B8
:102D20008431910509F4A9C14CF48231910509F46B
:102D3000A1C1439709F0B0CF8EE080C186319105E3
:102D400009F4A8C10CF49BC18C35910509F0A4CFFE
:102D500000E010E0980140E097C1B9D9CDB7DEB7E7
:102D6000E9E00C94CA2D10924D050E949D09009136
:102D70006403109165032091660330916703601727
:102D8000710782079307B8F0809162039091630303
:102D90008130910509F481C008F44EC0823091055C
:102DA00009F4EDC0039709F401C181E090E090932C
:102DB0003E0380933D0380913D0390913E03892B18
:102DC00009F426C10E949D096093390370933A0368
:102DD00080933B0390933C036AD8D62EC72EB82E1F
:102DE00080913F03CAE0C81B0C2F10E02DEF200399
:102DF000E0011124F12CE12C4D2D5C2D6B2DE01602
:102E0000F10664F0F701EE0FFF1FEE0DFF1DEC0F52
:102E1000FD1FE05CFC4F4081518162818E2D2ED9D7
:102E20003FEFE31AF30A8AE0E816F10429F70E945B
:102E3000460B0E94EF0592CF81E090E090936303F0
:102E4000809362036EE170E080E090E056DA6C5EA1
:102E50007F4F8F4F9F4F60935E0370935F0380930C
:102E600060039093610360E170E080E090E045DAF8
:102E700066307105D4F5D0E0C0E08E01000F111F5F
:102E80000C0F1D1F005C1C4F01D8F801608371837B
:102E900082832196CA30D10581F780913F038F5FED
:102EA00080933F038A3008F49AC082E090E09093C8
:102EB0006303809362030E949D096B017C0168E5B6
:102EC0007BE180E090E019DA68577C4E8F4F9F4F8E
:102ED000C60ED71EE81EF91EC0926403D092650389
:102EE000E0926603F092670360CF10E000E06A3082
:102EF000710564F563E070E080E090E0FED98B013D
:102F00009C010D5F1F4F2F4F3F4FF12CE12C29E00B
:102F100030E0201B310BC701880F991F8E0D9F1DBC
:102F2000EC01C05CDC4F2E153F056CF40E94460F8F
:102F3000688379838A83FFEFEF1AFF0A2AE0E2169B
:102F4000F10429F7AACF0E94570FF2CFC801880FCA
:102F5000991F800F911FEC01C05CDC4F05301105FB
:102F60005CF00E94460F688379838A830F5F1F4F4E
:102F70000A30110559F791CF0E94350FF4CF83E045
:102F800090E090936303809362036EE170E080E0D1
:102F900090E0B3D96C5E7F4F8F4F9F4F60935E037D
:102FA00070935F03809360039093610380913F036C
:102FB000815080933F03811112C0109263031092DD
:102FC00062030E949D096B017C0160E47FE180E067
:102FD00090E093D96053784F8F4F9F4F79CF0E94E5
:102FE0009D0900915E0310915F0320916003309171
:102FF0006103DC01CB01800F911FA21FB31F8093DF
:10300000640390936503A0936603B0936703CDCEEA
:103010000E949D090091390310913A0320913B03CE
:1030200030913C03601B710B820B930B653671056D
:103030008105910508F0C6CE91CE80E0E0DA8ECE13
:1030400081E0FCCF82E0FACF85E0F8CF0E94A208B1
:10305000892B11F487E0F2CF8CE0F0CF8DE0EECF3A
:1030600088E0ECCF86E0EACF84E0E8CF6FEF70E055
:1030700080E054CE60E070E8FBCF8FE0DFCF04E06B
:1030800010E020E030E044E16AEF70E080E090E0A2
:1030900045D964CE80E1D2CFA3E0B0E0E2E5F8E12B
:1030A0000C94AB2D07EE14E0F80101900020E9F735
:1030B0008F01085E1440023008F455C02091E704E7
:1030C000822F022E000C990BC0970A9708F04BC074
:1030D00029832091E804822F022E000C990BC097BF
:1030E00011E00A9710F42A8312E0E1E0F0E0EC0F1F
:1030F000FD1FE10FF11D1082CE0101960E94CE2C22
:103100006C01101780F51F5FA12EB12C101788F5E8
:10311000C50189519B4FFC0121912C3741F1022EB1
:10312000000C330B205331092A303105E0F41F5FC6
:10313000101790F310E000E00E94CE2C7C010023D9
:10314000D1F0812F90E088519B4F0E94CE2C4C01F2
:10315000F501EA51FB4F8081843409F460C07CF4AE
:10316000813409F45CC02396ECE00C94C72D01E097
:10317000E3CF00E0EDCF912C812C01E0E9CF803549
:1031800009F450C0843579F7002369F3C114D104E0
:1031900071F481149104E1F410924C0510924805E9
:1031A0001092490510924A0510924B0520C00E94CA
:1031B000A208892B21F0F4E0CF16D10451F30E942C
:1031C000A208892B81F685E0C816D10461F6E1CF0B
:1031D00081E080934C05092C000CAA08BB08809262
:1031E000480590924905A0924A05B0924B050E946D
:1031F000A208892B21F0E4E0CE16D10469F00E94E8
:10320000A208892B29F0C114D10409F0ACCF04C065
:10321000F5E0CF16D104B9F7C70115DDA4CF81E0E1
:1032200090E0FBCF002309F49ECF81E0C816D104C3
:1032300049F17CF4C114D10409F095CFE114F104F3
:10324000B9F41092AB0160E090E080E00E94FB2CAA
:103250008ACFF2E0CF16D10441F183E0C816D10441
:1032600009F081CFE114F10479F51092E5047BCFE8
:10327000E1E0EE16F10409F076CF81E08093AB0136
:1032800061E0E2CFE114F10431F41092E60460E071
:1032900081E090E0DBCFF1E0EF16F10409F063CFBD
:1032A00081E08093E60461E0F3CF89ECE816F10455
:1032B00044F088EC8093AA016091AA0182E090E03A
:1032C000C5CFE092AA01F8CF81E08093E504E9EC54
:1032D000EE16F10424F088EC8093A90144CFE0922B
:1032E000A90141CFCF93DF939091FE038091FF031B
:1032F000981739F183E697E00E940E0B0E94D906D9
:10330000882391F38091E7048132C9F48091BF044E
:103310008111EACFC7EED4E0AFE5B4E0E0E08991F7
:10332000882329F0EF3519F08D93EF5FF8CFF0E0A7
:10333000E15AFB4F108281E08093BF04D5CFACDE11
:10334000D3CFDF91CF910895A1E1B0E0EAEAF9E1AE
:103350000C94A52DE82E1B0149015A01F09006019D
:103360008F2D0E94B30C8C01EFEFEE0DEF30A0F427
:10337000F0E0E354F64E0C94992DF619CC19D619B9
:10338000CC19F9197C1AA81CF81C021DC11A0C1BB7
:10339000481B911BC81BE11BD1016D917D918C9144
:1033A0000E9489106196E2E10C94C12D8A3A910540
:1033B00010F40AEA10E00E949D096801F12CE12C4A
:1033C000681979098A099B09A7019801220F331FFF
:1033D000441F551F0E94352D6C157D058E059F05D8
:1033E00028F4F101608171818281DACF0E94671037
:1033F000D9CF0E949D09C0901603D0901703E0908A
:103400001803F09019039B01AC012C193D094E09DA
:103410005F0969017A0130E020E0C016D106E206BA
:10342000F30670F020911503609316037093170351
:10343000809318039093190383E0820F8093150300
:10344000EFE4F5E060E020911503260F38E0239FBC
:10345000A0011124552736E5349FC001359F900DFA
:103460001124392FA22FA074722F707227FD28C04B
:10347000A11114C0292F30957723D9F025E5290F04
:1034800080E03BEA3083218382836C5F3396603C2B
:10349000D1F60E94460B0E94EF0584CF71110BC03C
:1034A0003BEA349FD001359FB00D11242AEA290F41
:1034B0003B1B80E0E7CF292F2095892F30E0E2CF1A
:1034C000A11110C071110AC02BEA249FC001259FD1
:1034D000900D1124291B85E5890FF0CF892F809548
:1034E00020E0D0CF8BEA891B35E5772319F085E5FD
:1034F000891B3AEA390FF4CF80914E05882359F0A1
:1035000089E090E090931B0380931A0310924E057C
:1035100081E080934D050E94BB0B882309F442CFC4
:10352000E0901A03F0901B034AE0E416F10498F4CB
:103530000E94A80F0E947D0680914C0581110E9477
:10354000570BD1014D915D916C918E2D0E943E10D3
:10355000C8010E941F0FB1E0EB1AF108F7FC05C08B
:10356000F0921B03E0921A031DCF89E090E0909344
:103570001B0380931A038091380381508093380392
:1035800011CF0E949D09681979098A099B092FEFBB
:1035900030E02F193109032E000C440B550B5695C2
:1035A000479537952795225E3F4F4F4F5F4F0E94BB
:1035B000352DCA01B9012AE030E040E050E00E9418
:1035C000352D6B017C0110E000E0D601A01BB10B92
:1035D000B7FF04C0D6011A96A01BB10B60E0A4305F
:1035E000B10564F42FEF30E00E949F2D22E0969504
:1035F0008795779567952A95D1F76095C1010E94C7
:103600008C0CAB01682F802F0E943E100F5F1F4F64
:103610000A301105D1F63DCF0E949D0919821A8208
:103620001B82681979098A099B092FEF30E02F194D
:103630003109032E000C440B550B569547953795D1
:103640002795225E3F4F4F4F5F4F0E94352D6901F6
:103650007A0110E0C701B60123E030E040E050E01D
:103660000E94352DF101672B682B692B11F0FE01AB
:103670003196408151816281812F0E943E10EFEF8F
:10368000CE1ADE0AEE0AFE0A1F5F1A3019F701CFC2
:103690000E949D0919821A821B82681979098A0978
:1036A0009B092FEF30E02F193109032E000C440B3A
:1036B000550B5695479537952795225E3F4F4F4FAF
:1036C0005F4F0E94352DCA01B90124E130E040E08E
:1036D00050E00E94352D4B015C0183E190E07C01BC
:1036E000E818F908640110E000E0FAE08F16910490
:1036F000A104B10430F4C016D10634F4FE013196B1
:1037000004C00E151F05D4F7F1014081518162817B
:10371000802F0E943E100F5F1F4F0A30110529F7BE
:10372000B8CE0E949D09681979098A099B092FEF73
:1037300030E02F193109032E000C440B550B569520
:10374000479537952795225E3F4F4F4F5F4F0E9419
:10375000352D022F10E0C12CD12C7601C701B60106
:1037600029E030E040E050E00E94352D802F820FAC
:103770000E948006AB01682F812F0E943E1020E836
:10378000C20ED11CE11CF11C1F5F1A3039F781CE2B
:103790000E949D09681979098A099B092FEF30E079
:1037A0002F193109032E000C440B550B2E7F245C7E
:1037B0003F4F4F4F5F4F0E94352D822F0E94800652
:1037C000EFCD0E949D096E877F87888B998BAFEF25
:1037D000B0E0AF19B10926E030E00E949F2D9B01B7
:1037E000AC0120573E4F4F4F5F4F2A873B874C8796
:1037F0005D87412C70E2572E77E3672E7FEE772EA0
:10380000E9EB8E2EE9E79E2EE7E3AE2EEEE9BE2E23
:103810001D821C82D301C20188259925AA25BB25BA
:10382000AC01BD0121E176956795579547952A959D
:10383000D1F784279527A627B727AC01BD0135E02E
:10384000440F551F661F771F3A95D1F78427952798
:10385000A627B7279C013170CA84DB84EC84FD84E1
:10386000C20ED31EE11CF11C43E0880F991FAA1F52
:10387000BB1F4A95D1F7BC01CD01687F877099279E
:103880002E853F8548895989620F731F841F951FB4
:10389000A70196010E94352D9B01AC01D701C601FD
:1038A000B695A795979587958E839F83A887B987A7
:1038B000281739074A075B0708F041C0AFEFB0E0AF
:1038C0000E94252D2E813F81488559850E94352DE6
:1038D0000C811D81000F111FAC81BD810A0F1B1FC0
:1038E000015B1A4FB901CA016F3F7105810591054E
:1038F00029F020F06FEF70E080E090E0C1010E94BD
:103900008C0CF8016083718382832C813D812F5F51
:103910003F4F3D832C833FE4831A36E8930A38EC0B
:10392000A30A31E6B30A40EE541A49EC640A40E1B6
:10393000740A8C819D81C09709F06CCFAACDD70104
:10394000C601821B930BA40BB50B9C01AD01B6CF36
:1039500080914E058823F1F010924E0581E080930E
:103960004D0582E08093380380914C05882351F007
:10397000609148057091490580914A0590914B05E9
:103980000E94890B10921B0310921A030E94A80F29
:103990000E947D060E94BB0B8823F9F080911A03D8
:1039A00090911B03892B09F5D1014D915D916C918B
:1039B00083E00E94C11280911A0390911B03B1E031
:1039C0008B2790931B0380931A03809138038150B7
:1039D00080933803C8010E941F0F80914C058823F3
:1039E00009F4E0CC0E94570BDDCC0E94A80FE3CF76
:1039F000BC0190E080E000E010E0980140E00E940F
:103A00008E11D0CC80910701909108011CD9CACCAD
:103A1000CF93DF9385ED8093BC0080918A039091D2
:103A20008B03A0918C03B0918D030796A11DB11D4E
:103A300023E0B695A795979587952A95D1F720917C
:103A4000BC0024FD03C01092D20336C040918A030B
:103A500050918B0360918C0370918D03452B462B05
:103A6000472B69F30097A105B10541F02AE22A9599
:103A7000F1F700C00197A109B109E1CF8091890355
:103A800091E0909388038823B9F0C091B800D09159
:103A9000BA008091BC008A7B8093BC0060E082E029
:103AA0000E94C50860E083E00E94C5080E94E20A07
:103AB000D093BA00C093B800DF91CF910895DC0194
:103AC000ED91FC91119740815181FB010190002003
:103AD000E9F73197E61BF70B4E175F0751F4129683
:103AE000ED91FC91808191810E94513021E0892BE0
:103AF00009F020E0822F0895CF93DF93FB0101901E
:103B00000020E9F73197E61BF70BEC01A881B9819A
:103B10004D915C914E175F0749F4EA81FB818081EA
:103B200091810E94513021E0892B09F020E0822F01
:103B3000DF91CF910895AAE0B0E0E1EAFDE10C94B5
:103B4000A52D9E838D8378876F835A8749878FEF52
:103B50009FEFFA0191838083CE0107969A83898330
:103B600002979C838B8364E672E00497C5DF811122
:103B7000CDC068E672E0CE010196BEDF8111C8C0FB
:103B80006EE672E0CE010196B7DF8111C3C064E733
:103B900072E0CE010196B0DF8111BEC06AE772E02B
:103BA000CE010196A9DF8111B9C062E872E0CE01B1
:103BB0000196A2DF8111B4C067E872E0CE010196E0
:103BC0009BDF8111AFC06FE872E0CE01019694DFF8
:103BD0008111AAC065E972E0CE0101968DDF8111E5
:103BE000A5C06BE972E0CE01019686DF8111A0C00D
:103BF00061EA72E0CE0101967FDF81119BC066EA27
:103C000072E0CE01019678DF811196C06FEA72E012
:103C1000CE01019671DF811191C06AEB72E0CE0195
:103C200001966ADF81118CC02F803884F8E02F164E
:103C3000310408F487C0ED80FE8047E050E062EC7C
:103C400072E0C7010E945130892B09F07BC0F70157
:103C500087818D3209F445C0412C512C32014394A7
:103C600007E010E08B3211F408E010E00E0D1F1D8C
:103C70002E0C3F1C812C912C540102151305B1F11F
:103C8000F801C1908F0180ED8C0D8A3078F50C2CF5
:103C9000000CDD08F0E3CF1AD1080D2C000CEE0863
:103CA000FF086FEF7FE780E090E06C197D098E09D7
:103CB0009F092AE030E040E050E00E94092D2815DD
:103CC00039054A055B05CCF2AAE0B0E0A5019401F4
:103CD0000E94252D4B015C018C0C9D1CAE1CBF1C51
:103CE000CCCF44244A94542C3201BECF489CC0010E
:103CF000499C900D589C900D1124E985FA8591837B
:103D0000808389E02A96E2E10C94C12D81E0FACF0C
:103D100082E0F8CF83E0F6CF84E0F4CF85E0F2CF05
:103D200086E0F0CF87E0EECF88E0ECCF8AE0EACF04
:103D30008BE0E8CF8CE0E6CF8DE0E4CF8EE0E2CF01
:103D40008FE0E0CF80E0DECFA9E7B0E0EAEAFEE175
:103D50000C94A62D9C012F5F3F4F49E3BE016F5F7E
:103D60007F4F6B01DB01E42F1D92EA95E9F76FEFBE
:103D70007FEF78876F8344244A94542C3201498E14
:103D80005A8E6B8E7C8E54E058A7F601DE01DA96CF
:103D900001900D924A95E1F72115310509F418C2F9
:103DA000F90101900020E9F73197AF01421B530B55
:103DB0004330510508F40CC2DC0111963C91119777
:103DC00012962C91303539F0632F6B7F683419F0DF
:103DD0003A3209F0FDC1263439F0223529F0243574
:103DE00019F02A3209F0F4C1DC011396EC91139713
:103DF000E154E83108F0ECC1F0E0EF53FE4F608190
:103E0000662309F4E5C1FC013BAF2CAF6DAF433035
:103E1000510531F08481BD016B5F7F4F8A3319F109
:103E200081E08AAF8BAD803519F08A3209F0D0C1BC
:103E30001CAD1A3209F0C5C10E949D092B013C013D
:103E4000EDADE150E83008F0C3C1F0E0E65DF04EC2
:103E50000C94992DF320FA204C21AB21CA21E621A4
:103E600007224222B501FB0180818823C9F28B0120
:103E70005801D8018D91882329F08D3319F08C32A7
:103E800009F047C09801261B370BF12CE12C8D332C
:103E900061F48D017D015701F7014191CF01442368
:103EA00011F04C32C1F5EA1AFB0A2115310541F136
:103EB000DE01A858BF4F11967C936E93FE01EA581D
:103EC000FF4F31832083FA83E983BC83AB836AECA1
:103ED00072E0C601F4DD882301F1AE014D585F4F59
:103EE000B701C80128DE882359F091E09EAF8FAF5B
:103EF000E5968EAD9FADE59722969FAF8EAF229748
:103F0000F50180818C3209F0ADCFFFEFAF1ABF0A07
:103F1000A9CF8D01ADCF7C01BECF67EE72E0C601A7
:103F2000CEDD8823C1F0AE014D585F4FB701C80107
:103F30000E94BF0E882321F381E023968FAF239741
:103F4000E6968DAD9EADAFADE69726968DAF9EAF52
:103F5000AFAF2697D5CF6CEC72E0C601B0DD8823F9
:103F600059F081E027968FAF2797C8010E94CE2C89
:103F700028968FAF2897C4CF6AEE72E0C6019FDD06
:103F8000882371F081E029968FAF2997C8010E949C
:103F9000A30E2D966CAF7DAF8EAF9FAF2D97B0CF98
:103FA0006CED72E0C6018BDD882359F081E02E961E
:103FB0008FAF2E97C8010E94CE2C2F968FAF2F97D0
:103FC0009FCF6FEC72E0C6017ADD882359F081E063
:103FD00060968FAF6097C8010E94CE2C61968FAF1C
:103FE00061978ECF60EE72E0C60169DD882371F0C3
:103FF00081E062968FAF6297C8010E947A0E669642
:104000006CAF7DAF8EAF9FAF66977ACF6EEC72E0EC
:10401000C60155DD882359F081E067968FAF679719
:10402000C8010E94CE2C68968FAF689769CF61ED6A
:1040300072E0C60144DD8823C9F081E0A8968FAF05
:10404000A897C8010E94CE2CA9968FAFA997E1141A
:10405000F10409F455CFD8018C91833719F08936D2
:1040600009F04ECFAA968FAFAA974ACF63ED72E0C0
:10407000C60125DD882361F081E069968FAF6997DD
:10408000C8010E94CE2C6B969FAF8EAF6B9738CF36
:1040900067ED72E0C60113DD882371F081E06C9654
:1040A0008FAF6C97C8010E94A30EA0966CAF7DAF36
:1040B0008EAF9FAFA09724CF6AED72E0C601FFDC00
:1040C000882359F081E0A1968FAFA197C8010E9483
:1040D000CE2CA2968FAFA29713CF6EED72E0C601E1
:1040E000EEDC882371F081E0A3968FAFA397C8011F
:1040F0000E947A0EA7966CAF7DAF8EAF9FAFA79749
:10410000FFCE63EE72E0C601DADC8823D9F0AE019F
:104110004D585F4FB701C8010EDD882309F4F0CE7A
:10412000813008F4EDCE863028F096EF980F963067
:1041300008F0E6CE91E0AB969FAFAB97AC968FAF11
:10414000AC97DECE66EE72E0C601B9DC8823C9F01A
:10415000AE014D585F4FB701C8010E94BF0E8823C2
:1041600009F4CECE81E0AD968FAFAD97E6968DADDA
:104170009EADAFADE697E0968DAF9EAFAFAFE09747
:10418000BFCE69EE72E0C6019ADC882309F4B8CE8E
:10419000C8010E94A30E41E0E1964FAFE197462F80
:1041A000572FBC01473FB9E05B076105710520F05F
:1041B00046EF59E060E070E0E3965FAF4EAFE39703
:1041C0009FCE0E94A208163441F4892B09F034CE08
:1041D000C758DF4FE1E10C94C22D1235C9F7892B86
:1041E00009F42ACEF5CFBC01A201CE01CE960E94E1
:1041F000CA0CEECF8EAD882359F03FAC31E03316B8
:1042000038F055E0531530F486EF830D863010F00A
:1042100092E0392E29968FAD2997882369F12D9642
:104220008CAC9DACAEACBFAC2D9723968FAD2397D5
:10423000882341F1CE018D5B9F4F0E94AE0C6983B4
:104240007A838B8383017201A5019401B601832DCA
:104250000E94D50B882309F4BBCF2E968FAD2E97E5
:10426000882309F4B5CF2F968FAD2F9790E00E9449
:10427000C40C80930001ACCF88E7882E912CA12C30
:10428000B12CD3CF8091720790917307A0917407DE
:1042900089839A83AB83D6CF69968FAD699788233C
:1042A00041F06B968EAD9FAD6B979093AE0180936E
:1042B000AD01A1968FADA197882341F0A2968FAD55
:1042C000A297811101C084E08093B3016C968FADF9
:1042D0006C978823E1F1A0968CAD9DADAEADBFADDE
:1042E000A097840D951DA61DB71D8093AF019093D7
:1042F000B001A093B101B093B201A3968FADA39783
:10430000882371F0A7968CAD9DADAEADBFADA797DC
:104310008093B4019093B501A093B601B093B70117
:1043200081E02091AD013091AE01232B09F480E0B2
:104330008093AC0180E090E0A0E0B0E880930101C0
:1043400090930201A0930301B093040141CF80E058
:1043500090E0DC01C6CF2E968FAD2E97882371F0AA
:104360002F968FAD2F9790E00E94C40C8093000190
:1043700091E09093E5048093A9012ACFA8968FAD90
:10438000A897882321F0A9968FADA997ECCF8091AB
:104390000001E9CFA8968FADA897A9962FADA99750
:1043A000811101C020E06AEF6203C00111246FEFA8
:1043B00070E00E94862D6A5F7F4FECE1F3E061932D
:1043C000719383E0E033F807D1F702CF10921D0418
:1043D0001092C4041092AC011092180410921704A9
:1043E0008FEF9FEF90930B0180930A0180E090E0A4
:1043F000A0E0B0E88093010190930201A093030133
:10440000B09304011092E5040E946710E1CEAA96D1
:104410008FADAA978337C1F481E080931D04109279
:104420000D044092040450920504609206047092B8
:10443000070410921804109217048FEF9FEF9093C7
:104440000B0180930A0176CF893609F0C1CE109214
:104450001D0410921804109217048FEF9FEF909391
:104460000B0180930A0180E090E0A0E0B0E8809327
:10447000010190930201A0930301B09304011092F3
:10448000E504A6CE8CAD863419F0823509F0A0CEB5
:1044900091E2998390E59A838B83ECEEF2E0CE0172
:1044A00004962191222321F0DC012D93CD01F9CF37
:1044B0006091090170E00E945A0CE1E0F3E0219163
:1044C000222321F0DC012D93CD01F9CF60917207F9
:1044D0000E94420C609173070E94420C6091740725
:1044E0000E94420CE5E0F3E02191222321F0DC015F
:1044F0002D93CD01F9CF6091AD017091AE010E9475
:104500005A0C2DE0FC0120831182809102049091CD
:104510000304F60101900020E9F73197AF014C192F
:104520005D09DC01ED91FC910280F381E02DB60183
:1045300009954ECE8091020490910304DC01ED9127
:10454000FC910084F185E02D0995892B41F1809142
:10455000020490910304DC01ED91FC910084F1854B
:10456000E02D0995892BD1F08091020490910304EC
:10457000DC01ED91FC910284F385E02D09950E9408
:10458000D906882321F38091E704813221F487EE54
:1045900094E0DADBDCCF0E944C18D9CF78940895F0
:1045A0001F920F920FB60F9211248F939F938091B9
:1045B000E1009091E100937F9093E10083FF0FC0B1
:1045C0001092E90091E09093EB001092EC0092E3DE
:1045D0009093ED001092E40498E09093F00082FF35
:1045E00022C093E09093E9009091F200992319F092
:1045F0009AE39093E8009091D504992341F090912B
:10460000D50491509093D504911101C05D9A909179
:10461000E304992341F09091E30491509093E304D3
:10462000911101C0289A84FF18C08091E2008E7E0B
:1046300081608093E2008091E1008F7E8093E100B1
:104640008091D6048E7E80618093D6049F918F9155
:104650000F900FBE0F901F90189580FFF7CF80919D
:10466000E2008E7E80618093E2008091E1008E7E88
:104670008093E1008091D6048E7E8160E5CF1F9209
:104680000F920FB60F921124CF92DF92EF92FF920A
:104690000F931F932F933F934F935F936F937F934A
:1046A0008F939F93AF93BF93EF93FF93CF93DF933A
:1046B000CDB7DEB76C97DEBFCDBF1092E900809119
:1046C000E80083FF25C068E0CE0145960E944908B6
:1046D00082EF8093E8008D8987FF39C09091E800D0
:1046E00090FFFCCF982F907609F034C19E894F89B6
:1046F000588D2F89F88C911131C0803861F58091E7
:10470000D4048093F1001092F1008EEF8093E800C2
:104710006C960FB6F894DEBF0FBECDBFDF91CF9180
:10472000FF91EF91BF91AF919F918F917F916F9189
:104730005F914F913F912F911F910F91FF90EF90BB
:10474000DF90CF900F900FBE0F901F9018959EEFA7
:104750009093E800C7CF1092F100D5CF913059F473
:104760008111D3CF4130510581F68091D4048D7FE2
:104770008093D404CACF933049F48111C6CF41301D
:10478000510519F68091D4048260F2CF953041F43E
:104790008091E80080FFFCCF20682093E300B5CF34
:1047A000963009F0A9C00B8D1C8D22E01092E90013
:1047B0001092D2041092D104F2122EC01092D004A2
:1047C0001092CF040E941D081F8299E09983FA82FB
:1047D00091E09E8390EA98879AEF99872091D1047F
:1047E0003091D204275F3F4F3C832B838D831092FF
:1047F000E9001092D2041092D1041093D0040093D7
:10480000CF0449E050E0BE016F5F7F4F80E00E941F
:10481000FC070E941D0879CF1093D0040093CF04A9
:104820000E943407DC0112960D911C9101151105AF
:1048300009F451C1D801ED91FC910480F581E02D7E
:10484000BE016B5E7F4FC8010995009709F03EC11C
:10485000F80100851185EACFF3E0FF120EC08F89C1
:10486000882309F440C0823061F440E862E18DE0C1
:104870009BE00E94CF07811148CF81E28093EB003B
:1048800047CF813029F440E868E084E09BE0F1CF35
:10489000833099F70E943407DC011296ED90FC906A
:1048A0008E010F5F1F4F6801E114F10479F0D70109
:1048B000ED91FC910680F781E02DB801C7010995C3
:1048C000080F111DF701E084F184EECFD8011C928E
:1048D000F60101900020E9F73197BF016C197D09BD
:1048E00040E0C601C6CF6EEE7AE0FB01449150E095
:1048F00080E80E94FC0709CF973009F4BECF9830BA
:1049000021F481E08093F10000CF993009F0FDCED1
:10491000837009F0B2CFEAEDF1E081E09191992343
:1049200081F08093E90091E09093EB00DF01119713
:104930009C919093EC0096E39093ED008F5F87300D
:1049400069F78EE78093EA001092EA008F898093DE
:10495000E404DBCE8B8D9C8D1092E9001092D20482
:104960001092D1049093D0048093CF04898D81114B
:1049700092C08E899D89913A49F4813209F07DCFA8
:1049800047E050E061EA71E080E0B3CF913209F096
:1049900074CF833269F48F89988DB0E0A0E0809362
:1049A0009D0190939E01A0939F01B093A001ADCE75
:1049B000803269F48091E80082FFFCCF67E081EAF1
:1049C00091E00E9449088BEF8093E8009ECE8232EE
:1049D00009F09BCE8F898093A801EEEFFFE78591C8
:1049E00094918B3F9C4D51F1E0E0F8E08091A10162
:1049F0009091A201A091A301B091A401803B9440A9
:104A0000A105B105F1F48091A80180FD1AC0EE3F27
:104A10008AE0F80789F587E797E79183808380919B
:104A200060008093D30488E19BE00FB6F894A895CA
:104A3000809360000FBE9093600067CEEEEFFAE0C7
:104A4000D5CF808191818737974709F05ECEA895B1
:104A5000809160008861809360008091D30480938E
:104A60006000EE3F2AE0F20789F08091FE0A909103
:104A7000FF0A9183808349CE80819181873798078F
:104A800051F29093FF0A8093FE0AC5CF1092FF0A5D
:104A90001092FE0A3ACE0E943407DC0112960D9164
:104AA0001C910115110509F4E8CED801ED91FC9196
:104AB0000190F081E02DBE016B5E7F4FC80109952A
:104AC000811123CEF80100851185EBCF1816190648
:104AD0000CF41BCED2CEF1E0FF12BECE62EF7AE034
:104AE00004CF1F920F920FB60F9211242F933F9372
:104AF0008F939F93AF93BF938091DF059091E005D3
:104B0000A091E105B091E2053091CA0423E0230FA2
:104B10002D3758F50196A11DB11D2093CA0480932D
:104B2000DF059093E005A093E105B093E205809145
:104B3000CB049091CC04A091CD04B091CE04019609
:104B4000A11DB11D8093CB049093CC04A093CD0400
:104B5000B093CE04BF91AF919F918F913F912F91D0
:104B60000F900FBE0F901F90189526E8230F029606
:104B7000A11DB11DD2CF1F920F920FB60F9211241B
:104B80002F933F934F935F936F937F938F939F9355
:104B9000AF93BF93EF93FF9386EC96E00E94320AA7
:104BA000FF91EF91BF91AF919F918F917F916F9105
:104BB0005F914F913F912F910F900FBE0F901F90DB
:104BC00018951F920F920FB60F9211242F938F9367
:104BD0009F93EF93FF93E091D606F091D7068081E3
:104BE000E091DC06F091DD0682FD1BC09081809192
:104BF000DF068F5F8F732091E006821741F0E0910E
:104C0000DF06F0E0EA53F94F958F8093DF06FF91BE
:104C1000EF919F918F912F910F900FBE0F901F904A
:104C200018958081F4CF1F920F920FB60F92112426
:104C30002F933F934F935F936F937F938F939F93A4
:104C4000AF93BF93EF93FF938091B900887F803635
:104C500009F44AC0F0F5883209F4A7C018F580318C
:104C600009F49BC0B8F4882309F4F9C0883009F42A
:104C700094C0FF91EF91BF91AF919F918F917F91E0
:104C80006F915F914F913F912F910F900FBE0F90B9
:104C90001F901895883109F488C0803251F78093AD
:104CA000D10314C0803409F49DC040F48033B9F3BB
:104CB0008833F9F68093D10385ECB0C0803509F4D0
:104CC00085C0883509F496C0883499F60E94081D7D
:104CD000D0CF883909F48CC038F5883729F050F4E2
:104CE000883611F0803729F683E08093D203109242
:104CF000D00357C0883809F47BC0803919F0803858
:104D000009F0B7CF8091D003803208F071C0E091F4
:104D1000D00381E08E0F8093D0038091BB00F0E040
:104D2000E055FC4F80833DC0803B39F0E0F4803A91
:104D300009F479C0883A09F09CCF84E08093D203CB
:104D40001092AF031092AE03E091FA03F091FB03CF
:104D500009958091AE0381110FC081E08093AE036D
:104D600010928E0309C0803C09F4A6CF883C09F458
:104D7000A3CF883B09F07DCFE091AF0381E08E0F98
:104D80008093AF03F0E0E257FC4F80818093BB003B
:104D90009091AF038091AE0329C08091F703809377
:104DA000BB0085EC8093BC0064CF9091F6038091AA
:104DB000F503981758F5E091F60381E08E0F809384
:104DC000F603F0E0EB52FC4F8081E9CFE091F6036F
:104DD00081E08E0F8093F6038091BB00F0E0EB52F0
:104DE000FC4F80839091F6038091F5039817C8F2E9
:104DF00085E8D8CFE091F60381E08E0F8093F6032B
:104E00008091BB00F0E0EB52FC4F80838091D40393
:104E100081115CCF81E08093D30384EA8093BC004E
:104E20001092D20326CF85EC8093BC001092D2035F
:104E30008091D003803230F4E091D003F0E0E0556F
:104E4000FC4F10826091D00370E0E091F803F09184
:104E5000F90380EB93E009951092D0030ACF1092EA
:104E6000D10334CFE6E7F6E01382128288EE93E0B6
:104E7000A0E0B0E084839583A683B78322E332E089
:104E8000318320832FEF3FEF35872487E6ECF6E070
:104E90001382128284839583A683B78324E432E04D
:104EA000318320832DEC30E0358724872CEC30E0F3
:104EB0003787268728EC30E0318B208B29EC30E0D7
:104EC000338B228B2AEC30E0358B248B2EEC30E0B8
:104ED000378B268B118E128E138E148EE3E6F7E03D
:104EE0001382128284839583A683B78386E592E03A
:104EF00091838083E6E8F7E0108211828FEF82834E
:104F0000E3E8F7E0808311821282E0E8F7E01082A4
:104F100011821282EDE7F7E0108281831282EAE7C4
:104F2000F7E098EC90839AEA91831282E7E7F7E042
:104F300010821182128221E030E0309376072093B4
:104F40007507E2E7F7E0108211828283EFE6F7E06F
:104F50008083818382830895ADE0B0E0E1EBF7E2E6
:104F6000F4C5789484B5826084BD84B5816084BDC5
:104F700085B5826085BD85B5816085BD80916E00F7
:104F8000816080936E001092810080918100826028
:104F90008093810080918100816080938100809165
:104FA0008000816080938000809191008260809376
:104FB0009100809191008160809391008091900098
:104FC0008160809390008091C10084608093C100D3
:104FD0008091C10082608093C1008091C100816096
:104FE0008093C1008091C30081608093C300809151
:104FF000C00082608093C0008091C2008160809375
:10500000C20080917A00846080937A0080917A0057
:10501000826080937A0080917A00816080937A0028
:1050200080917A00806880937A001092E404109254
:10503000D4041092D6048091D70081608093D70069
:1050400080EA8093D80089B5806189BD89B5826086
:1050500089BD09B400FEFDCF0E9417098091D800D8
:105060008F7C80618093D8008091E000807F809366
:10507000E0008091E1008E7E8093E1008DE08093DE
:10508000E200559A209A8FE495E09093B9018093BD
:10509000B80180E390E09093BB018093BA01549AE9
:1050A0005C98EBE5FBE02491ECE3FBE08491882342
:1050B000C9F090E0880F991FFC01EC57F54F45911E
:1050C0005491FC01E256F54FA591B4919FB7F89425
:1050D000FA013081822F809583238083EC91E22B2B
:1050E000EC939FBF0E94460B8093BC011092FF037C
:1050F0001092FE031092FD031092FC030E94E20A3C
:1051000089EA99E09093FB038093FA038AEA99E095
:105110009093F9038093F8038CE28093BA0082E7BE
:1051200099E19093010480930004E091D606F091F8
:10513000D70682E08083E091D206F091D3061082F8
:10514000E091D406F091D5068FEC80831092DE06B4
:10515000E091DA06F091DB0686E08083E091D806E4
:10516000F091D906808180618083E091D806F0912A
:10517000D906808188608083E091D806F091D906B5
:10518000808180688083E091D806F091D906808183
:105190008F7D808386EC96E09093030480930204D5
:1051A00090E080E020D481115CC01092AB0181E0DE
:1051B00090E019D481115BC01092E60482E090E087
:1051C00012D48093AA010E949D090091C6041091F7
:1051D000C7042091C8043091C9046B017C01C01A36
:1051E000D10AE20AF30A970186010A311105210565
:1051F000310508F4BCC26093C6047093C704809361
:10520000C8049093C90480911D048823F1F00E9482
:105210009D094B015C018091190490911A04A091A1
:105220001B04B0911C040097A105B10531F1A50143
:105230009401281B390B4A0B5B0BDA01C901B7FD3E
:105240001CC010921D041092E50480914D05882326
:1052500009F4EFC280917507909176070E9423169A
:1052600009C2813009F0A3CF8093AB01A0CF813078
:1052700009F0A4CF8093E604A1CF8091AC018823EC
:1052800009F4FEC0009117041091180410161106BD
:105290000CF0F6C0B501A401CE0101960E94BC0F2E
:1052A000C980DA80EB80FC80ECE0F1E030E020E0C7
:1052B000C90101974081518162817381C416D5066D
:1052C000E606F70644F0029672960817190709F4E5
:1052D00074C29C01EDCF8F3F980709F46EC02091F6
:1052E0000A0130910B012817390709F466C0909321
:1052F0000B0180930A01A2E1A89FF001A99FF00D84
:105300001124E45FFE4F408151816281738140939B
:1053100013045093140460931504709316049C01B5
:105320002F5F3F4F201731070CF049C2A29FF001B9
:10533000A39FF00D1124E45FFE4F408151816281F3
:10534000738140930F045093100460931104709381
:10535000120422E1289FF001299FF00D1124E45F3F
:10536000FE4F248120930901293041F425813681A3
:1053700037FD04C0309308012093070122E1289FE4
:105380008001299F100D1124C8018D5E9E4F0E943F
:10539000AE0C609372077093730780937407F801E3
:1053A000E45FFE4F828580930601838580930E041F
:1053B00084858093050110920D04809101019091E4
:1053C0000201A0910301B0910401C816D906EA06B2
:1053D000FB0609F455C0C0920101D0920201E0928F
:1053E0000301F092040140910A0150910B0157FD15
:1053F00047C082E1849FF001859FF00D1124E45F96
:10540000FE4F85858823E1F18485823041F081302B
:1054100009F418C2843009F415C2833089F582E199
:10542000849FF001859FF00D1124E45FFE4F2189D8
:1054300064EB462E512C612C712C222331F030E08C
:10544000AAE0B0E034D32B013C0182E1849F8001CB
:10545000859F100D1124C801865E9E4F0E94AE0CE0
:105460006A877B878C87F801E45FFE4F85017401B2
:10547000A3019201BE01665F7F4F85850E94D50B17
:1054800010910001C090C404CD86C110D5C0809198
:10549000AC01882309F4D0C030900E04332009F405
:1054A000CBC000910501002309F4C6C0B501A401D9
:1054B000CE0101960E94BC0F80910A0190910B01D0
:1054C00097FD82C1C0900F04D0901004E0901104A9
:1054D000F09012048090130490901404A09015048E
:1054E000B09016048C149D04AE04BF040CF06CC183
:1054F00069817A818B819C81681979098A099B0964
:105500005FD42B013C01C701B601681979098A09EA
:105510009B0956D49B01AC01C301B201B6D36B0108
:105520007C012984023049F0013011F0043011F47B
:10553000222019F0033009F05AC12D813E814F819C
:10554000588560E070E080E89FE336D39B01AC01B2
:105550003ED52B013C01632D70E090E080E02ED41D
:105560004B015C01211011C026E636E646EA5FE3F6
:10557000C301B2012CD52B013C0120E030E040E812
:105580005FE321D518160CF461C10330F1F420E07B
:1055900030E0A901C701B60174D387FD19C120E02D
:1055A00030E040E85FE3C701B6010DD5181634F4CA
:1055B000C12CD12C40E8E42E4FE3F42EA701960134
:1055C000C301B20104D52B013C01A3019201C50125
:1055D000B401FDD44B015C0120E030E0A90151D3BE
:1055E00087FDFAC020E030E04FE753E4C501B40185
:1055F000EAD418160CF4F4C0C501B401B3D3062FD5
:10560000EFEFF0E0AF0143195109212F30E0429F45
:10561000C001439F900D529F900D1124BF0162D293
:10562000AB01261B370B029FC001039F900D112475
:10563000BF0158D2162F140F01E00093E504812F0B
:1056400090E00E94C40C8093A901DD84DD2009F460
:10565000D0C02091090430910A0440910B0450916C
:105660000C0480910804811101C082E06FE677E0AC
:105670000E94A419E0915A04F0E0EE0FFF1FE25ED1
:10568000FB4F2081318180915B0490915C04A0915B
:105690005D04B0915E04821B930BA109B109809354
:1056A0005B0490935C04A0935D04B0935E04E3E913
:1056B000FAE0E49190917B008E2F880F880F807222
:1056C0009F7D892B80937B00E770E064E0937C00F2
:1056D00080917A00806480937A0080917A0086FDC0
:1056E000FCCFA0917800B091790028EC30E027D26F
:1056F00020E034E040E050E08CD180915A04E82F63
:10570000F0E0EE0FFF1FE25EFB4F31832083442762
:105710005527C0905B04D0905C04E0905D04F0904D
:105720005E04C20ED31EE41EF51EC0925B04D0922E
:105730005C04E0925D04F0925E048F5F6EE1C6D17E
:1057400090935A04C701B6012EE130E040E050E0EA
:105750008CD18091C504281708F472C0E22EE81A93
:105760008E2D833020F02093C50420939C018091DE
:10577000BF04882331F08FE594E00E94A41E1092AC
:10578000BF048091C4048823A9F00E949D09009160
:10579000C0041091C1042091C2043091C304601B65
:1057A000710B820B930B97FD05C01092C40481E02E
:1057B00080934E050E949A2206CDC90190CD415F8B
:1057C000584D6F4F7F4FBDCDC12CD12C7601A9CE46
:1057D000C12CD12C7601F2CE812C912C54010CCF0E
:1057E000812C912C3FE7A32E33E4B32E05CF00E0AC
:1057F00007CF1091090180910D04181771F00093E3
:105800004E0510930D040E949D096093040470934B
:1058100005048093060490930704209104043091BA
:105820000504409106045091070462E777E0812F58
:105830001FCF81E090E090937607809375070ECD9F
:10584000821B8FCF898581111BCEE9CD033009F0F2
:10585000C9CE412C512C50E8652E5FE3752E97CEB2
:105860008F929F92AF92BF92CF92DF92EF92FF9270
:10587000CF93DF93EC01688179818A819B816115E7
:1058800071058105910521F464E279ED8BE597E0DE
:105890002DE133EF41E050E0BCD049015A019B01BA
:1058A000AC01A7EAB1E4D1D06B017C01ACEEB4EF5E
:1058B000A5019401D6D0C60ED71EE81EF91EF7FE2C
:1058C00006C081E0C81AD108E10880E8F80AC88259
:1058D000D982EA82FB82C701B6019F77DF91CF911F
:1058E000FF90EF90DF90CF90BF90AF909F908F9000
:1058F00008958F929F92AF92BF92CF92DF92EF92D4
:10590000FF926091BD017091BE018091BF019091A5
:10591000C001611571058105910521F464E279EDFD
:105920008BE597E02DE133EF41E050E072D0490183
:105930005A019B01AC01A7EAB1E487D06B017C015D
:10594000ACEEB4EFA50194018CD0C60ED71EE81EB4
:10595000F91EF7FE06C081E0C81AD108E10880E808
:10596000F80AC092BD01D092BE01E092BF01F09250
:10597000C001C701B6019F77FF90EF90DF90CF90F5
:10598000BF90AF909F908F9008956093BD017093EA
:10599000BE018093BF019093C0010895FC01882748
:1059A0009927E89421912032E9F3293010F02E3024
:1059B000C8F32B3239F02D3231F4689403C00BD088
:1059C000820F911D219120532A30C8F31EF4909527
:1059D00081959F4F08957AE0979F902D879F802D06
:1059E000910D11240895F999FECF92BD81BDF89AC9
:1059F000992780B50895262FF999FECF1FBA92BD39
:105A000081BD20BD0FB6F894FA9AF99A0FBE01969F
:105A10000895052E97FB16F400940FD057FD05D07E
:105A200024D007FC02D046F408C05095409530952C
:105A300021953F4F4F4F5F4F0895909580957095FA
:105A400061957F4F8F4F9F4F089531D0A59F900D47
:105A5000B49F900DA49F800D911D11240895B7FF50
:105A6000F4CFF3DF821B930B0895A1E21A2EAA1B39
:105A7000BB1BFD010DC0AA1FBB1FEE1FFF1FA217FE
:105A8000B307E407F50720F0A21BB30BE40BF50BFB
:105A9000661F771F881F991F1A9469F76095709584
:105AA000809590959B01AC01BD01CF010895A29F07
:105AB000B001B39FC001A39F700D811D1124911DE2
:105AC000B29F700D811D1124911D0895991B79E0DD
:105AD00004C0991F961708F0961B881F7A95C9F77E
