:10000000C5C50000EBC50000E9C50000E7C500005C
:10001000E5C50000E3C50000E1C50000DFC5000044
:10002000DDC50000DBC500000C945B210C94CA21E7
:10003000D5C50000D3C50000D1C50000CFC5000064
:10004000CDC50000CBC50000C9C50000C7C5000074
:10005000C5C50000C3C50000C1C500000C94FC2349
:10006000BDC500000C946C240C944624B7C5000058
:10007000B5C50000B3C50000B1C50000AFC50000A4
:10008000ADC50000ABC50000A9C50000A7C50000B4
:10009000A5C50000A3C50000A1C500009FC50000C4
:1000A0009DC500009BC5000099C500000000000030
:1000B0000000000000000000000000000000000040
:1000C0000000000000000000000000000000000030
:1000D000000000010000000101000100000000001C
:1000E0000000000000000000000000000000000010
:1000F00000000000000000020000030000000000FB
:1001000001000001000000010000010000000000EB
:1001100000000000000000000000000000000000DF
:1001200003000000000000020000030000000000C7
:1001300001000001000000010000010000000000BB
:1001400000000000000000030000000000020000AA
:100150000300000000000002000003000000000097
:10016000010000010000000100000100000000008B
:100170000000020000000300000000000200000375
:10018000000000000000020000000300000000006A
:10019000010000010000000100000100000000005B
:1001A000000000000000000000000002000000034A
:1001B000000000000000020000030000000000003A
:1001C0000100000300000000010001000000000029
:1001D0000000020000000000000000000200030018
:1001E000000000000000020000030000000000000A
:1001F00001000003000000010000000104040404E9
:1002000004040404020404040404040404020404B2
:1002100004040404040404030303010104040404A7
:1002200001040404040404010404040400000000A4
:1002300000000000020000000000000000020000BA
:1002400000000000000000020303030101000000A1
:10025000010000000000000100000000000000009C
:10026000000000020000000000000000000200008A
:10027000000000000000000200000100000000007B
:10028000010000000000000100000000000000006C
:10029000000000000000000000000002000000005C
:1002A0000000000000000200000001030000000048
:1002B000010000000000000001000000000000003C
:1002C000000002000000000000000000020000002A
:1002D0000000000000000002000101030303000011
:1002E000010000000000000100000000000000000C
:1002F00000000000020000000003000000020000F7
:1003000000030000000000020000010000000000E7
:1003100001000100000000010000000000000000DA
:1003200000000000000200000300000000020000C6
:1003300003000000000000020000030000000000B5
:1003400001000001000000010001000000000000A9
:100350000000000000000200000000000000020396
:100360000000000000000000020003000000000088
:100370000100000100000001000001000404040469
:100380000404040403040402040404040404030233
:100390000404040404040404020304040404040420
:1003A0000104040104040104040404010000000029
:1003B0000000000003000002000000000000030233
:1003C0000000000000000000020300000000000028
:1003D0000100000100000100000000010000000019
:1003E0000000000000030200000000000000020303
:1003F00000000000000000000203000000000000F8
:1004000001000001000000010000010000000000E8
:1004100000000000020000030000000000020000D5
:1004200003000000000000020000030000000000C4
:1004300001000001000000010000010000000000B8
:1004400000000000020000000000000000020000A8
:100450000300000000000002000003000000000094
:100460000100000100000001000001000000000088
:10047000000000000000000000000000000200007A
:10048000000000000000000200000000000000006A
:100490000100000100000001000001000000000058
:1004A000000000000000000000000000000000004C
:1004B000000000000000000000000000000000003C
:1004C0000100000100000001000001000101000026
:1004D0000101000101000001010000000101000014
:1004E0000101000000000101000001010000000105
:1004F00001010101010000010101010000000000F3
:1005000000000001010000010100000101010101E2
:1005100001010100000001010101010100000000D2
:1005200001010101000000000101000000010101C2
:1005300001000000000101000000000000000101B6
:1005400000000000000000000101000000000000A9
:100550000001010000000001010101000000000095
:100560000001000000000001000100000100000087
:100570000100000101010001000100000000000075
:100580000100010000000000010000000000010166
:100590000000010001010101000101000000010152
:1005A0000000000101010001010101000101010140
:1005B0000101010101010101010101010407000123
:1005C000030178000701010301780007020103011C
:1005D0007800070301030178000704010301780094
:1005E00007050103017800070601030178000707EA
:1005F00001030178000708010301780007090103DE
:10060000017800050101960004019600000604032C
:100610000001F4010401F4010603030009210009AB
:10062000180001F401040604030006020364090E25
:1006300000090F0009160009170001F4010E040655
:1006400003030009210009180006020364090E00D3
:10065000090F0009160009170006010314090D000F
:10066000090C0009070009060001F401040604034F
:100670000006020364090E00090F0009160009179D
:100680000006010314090D00090C00090700090602
:10069000000600030C090000090100090400090517
:1006A0000001F40110000A05021101FA000A060215
:1006B0001101FA000A07021101FA000A08021101E9
:1006C000FA000A09021101FA000A0A021101FA00ED
:1006D0000A0B03110164000A09021101FA000A0C55
:1006E000021101FA000A0D021101FA000A0E0211AC
:1006F00001FA000A0F021101FA000A10021101FAB0
:10070000000A11021101FA000A12021101FA000A8C
:100710001303110164000A14021101FA000A150200
:100720001101FA000A16021101FA000A170211015A
:10073000FA000A18021101FA000A19021101FA005E
:100740000A1A021101F4010007000501070505005E
:100750000128020700050007050501012802000A1B
:1007600003001101F4010401F4010A03001101F472
:10077000010401F4010A03001101F4010401F40170
:10078000000A020001F4010401F4010A030001F46B
:10079000010401F4010A040001F4010401F4010060
:1007A0000CDCFA020501010D06020801010CDCFA5D
:1007B000020401010D06020801010CDCFA020B0122
:1007C00001000B030501960004019600000A0101D7
:1007D0000921020164000A01010920020164000AE2
:1007E00001010910020164000A0101091E020164ED
:1007F000000A01010924020164000A0101092D0215
:100800000164000A01010926020164000A010109CC
:100810001C020164000A01010914020164000A01BA
:10082000010908020164000A0101090502016400CE
:100830000A01010906020164000A01010917020107
:100840006400000A00000101000008000500020128
:10085000FA0010080505000201FA0010080505015C
:100860000201FA0010080005010201FA001000045C
:100870000F0700010201FA00040F0701010201FA4B
:1008800000040F0702010201FA00040F070301022E
:1008900001FA00040F0704010201FA00040F070522
:1008A000010201FA00040F0706010201FA00040F19
:1008B0000707010201FA00040F0708010201FA000C
:1008C000040F0709010201FA00040F0708010201E1
:1008D000FA00040F0707010201FA00040F070601DE
:1008E0000201FA00040F0705010201FA00040F07D4
:1008F00004010201FA00040F0703010201FA0004D7
:100900000F0702010201FA00040F0701010201FAB8
:100910000000040F0605030001F401040F060403A0
:100920000001F401040F0603030001F401040F06A3
:1009300002030001F401040F0601030001F40104A5
:100940000F0600030001F40100040F06000400017B
:100950004A00040F06010400014A00040F060204C5
:1009600000014A00040F06030400014A00040F06B8
:10097000040400014A00040F06050400014A0000B7
:100980000501017D0004017D00000501013C00041A
:10099000013C0000000000FFFFFFFF0000C8AA00AC
:1009A000CCCCCC8080809999990000CC9094971100
:1009B00000005555558C055C052C05FC04CC049CA9
:1009C000046C043C040C04DC03AC037C034C031CEB
:1009D00003EC02BC028C025C022C02FC01CC019CE8
:1009E000016C013C010C01DC00AC000208000000BD
:1009F000090A000000010002070001000207068A40
:100A00000918040080090F0400490939220012095D
:100A10000500006F080500004A08060001430800B1
:100A20000500CD07030001C2071E0401C207000034
:100A300001A00701000481070300015F0703000113
:100A400048072A2F01A6060000030D06040A01BC70
:100A50000503000104040404040400030303030366
:100A60000300000002020202020200000000010175
:100A7000010101010000000101010101010001016A
:100A80000101010100000000250028002B002E00BC
:100A9000310000000000240027002A002D00300053
:100AA000070605040100080A0B0C0D09080B0002DB
:100AB00002020000090400000102020000052400F7
:100AC0001001052401010104240206052406000189
:100AD0000705810310004009040100020A0000001C
:100AE00007050202400000070583024000000403DE
:100AF000090412010002EF0201404F1B069200019F
:100B000001020301537061726B46756E0053706190
:100B1000726B46756E2050726F204D6963726F0064
:100B2000000000002300260029002C002F000404F0
:100B30000404040304050202020204030202020286
:100B4000060606060606040402020204040408025D
:100B50000110408040102040804080080204018045
:100B600040201002011080102040402000000002B0
:100B700000090F0000030401000C00000000000049
:100B8000000000000000000000009E2411241FBE91
:100B9000CFEFDAE0DEBFCDBF12E0A0E0B1E0E0E3EE
:100BA000FBE502C005900D92AA3FB107D9F726E0F8
:100BB000AAEFB2E001C01D92A037B207E1F715E03D
:100BC000C6ECD5E004C02197FE010E94D02AC53CA6
:100BD000D107C9F70E940C250C94962D11CACF930A
:100BE000DF93E091B801F091B901309709F482C028
:100BF0002091BA013091BB01121613060CF07AC095
:100C0000A8EDB4E070E060E0482F50E04F5F5F4F28
:100C10009181949FE001959FD00D1124DC939081E8
:100C2000949FE001959FD00D11241196DC931197AC
:100C30009281949FE001959FD00D11241296DC9330
:100C400012976F5F7F4F1396339626173707E1F69B
:100C5000822F880F820F2FB7F894E8EDF4E0982FD9
:100C6000319148E05C9A330F10F05C9803C00000AB
:100C70000000000000000000000000005C984A95A1
:100C800019F000000000EECF31919A9551F72FBF77
:100C90009AE0899F90011124213084E0380750F1B7
:100CA0008091D6049091D7049450820F931F909313
:100CB000D7048093D604883E23E09207B8F0885E7C
:100CC00093404091D2045091D3046091D404709128
:100CD000D5044F5F5F4F6F4F7F4F4093D2045093C7
:100CE000D3046093D4047093D504E5CF9093D704D4
:100CF0008093D604DF91CF9108958091BC016FCF8E
:100D0000EAE7FBE09491EBE5FBE02491ECE3FBE008
:100D10008491882309F45BC09923E9F091509F30B6
:100D2000D0F4E92FF0E0E956F94F0C94D02AC2062E
:100D3000C606A606BA06BE06AB06AB06AB06C906D5
:100D4000CF06D306D706DD06AB06E10690918000FC
:100D50009F7790938000E82FF0E0EE0FFF1FE05E9A
:100D6000F44FA591B491EC912E2381E090E089F5A8
:100D700080E00895909180009F7DEBCF909180005E
:100D8000977FE7CF94B59F7794BDE5CF94B59F7DCE
:100D9000FBCF909190009F7790939000DCCF909143
:100DA00090009F7DF9CF90919000977FF5CF909123
:100DB000C0009F779093C000CECF9091C0009F7DE0
:100DC000F9CF9091C200977F9093C200C4CF80E08A
:100DD00090E00895CF93DF9396E0899FF00111246E
:100DE000AF0155273FEF349FC001359F900D11246F
:100DF000CFEFD0E0BE010E94A92AAE01461B570BDF
:100E0000349FC001359F900D1124BE010E94A92A74
:100E1000262FCF0180959095839FC0011124BE019C
:100E20000E94A92AAE01461B570B349FC001359F73
:100E3000900D1124BE010E94A92AEF2FFF2790E0F8
:100E40007FEF862FE230F105B9F050F4309789F04A
:100E5000922F7FEF319779F09FEF70E0822F0CC0D7
:100E6000E330F10569F0962F70E03497A9F78FEF22
:100E700003C09FEF762F80E0692FDF91CF91089517
:100E800090E0722FF4CF90913A04911103C08FEF4C
:100E90009FEF08954FB7F89492E09093E9009091F6
:100EA000F200292F30E01216130614F421E030E08E
:100EB000232B31F0289884E6809339048091F10047
:100EC000992339F02091F200211103C02BE62093E1
:100ED000E8004FBF9923D9F290E008952FB7F89416
:100EE00083E08093E9009091E800892F807295FF5C
:100EF00004C09091F20080E4891B2FBF0895809177
:100F0000310481110DC082E080932D0484E0809330
:100F10002E041092300410922F0481E0809331044B
:100F20008DE294E00895A1E0B0E0E9E9F7E00C94E7
:100F3000EC2A6983DC01ED91FC910280F381E02DC4
:100F400041E050E0BE016F5F7F4F09952196E2E0DE
:100F50000C94082B83E08093E9008091F2008823B1
:100F600019F08AE38093E8000895B8DF90E00895CF
:100F7000FC018485958597FD05C02FEF3FEF3587F0
:100F80002487089580CFCF93DF93EC018C859D85D6
:100F900097FF03C078DF9D878C878C859D85DF91C7
:100FA000CF910895FC018485958597FD0BC09FB76F
:100FB000F89482E08093E9008091F2009FBF90E076
:100FC000019608959FB7F89482E08093E90080919C
:100FD000F2009FBF90E008954091270450912804AB
:100FE000209125043091260442175307B4F49091C0
:100FF000E8009570E1F39091E80092FD19C08093AC
:10100000F100809127049091280401968F7399270D
:10101000892B19F48EEF8093E8008091270490913A
:1010200028040196909328048093270481E0089572
:1010300080E00895EF92FF920F931F93CF93DF9379
:10104000F82E192FE62E042F81E0860F880FC4DFBB
:1010500083E0C2DFCF2DD12FEC0EFD2EF11CCE157B
:10106000DF0599F007FF0FC0FE018491B5DF182F4F
:1010700080E0B2DF812321968111F1CFCDB7DEB7B9
:10108000E6E00C94042B8881F1CF81E0F7CFB0E04B
:10109000A0E0EDE4F8E00C94E72AD82E8A01EB01F9
:1010A0007B01E40EF51ECE15DF0551F0D7FE0EC014
:1010B000FE01849191DF21968111F5CF0FEF1FEF93
:1010C000C801CDB7DEB7E7E00C94032B8881F2CFDF
:1010D000A1E0B0E0EEE6F8E00C94EA2A82E0898331
:1010E00042E450E06CEA7AE080E8D1DF08DFDC011E
:1010F00012960D911C910115110589F0D801ED9101
:10110000FC910280F381E02DBE016F5F7F4FC8012B
:10111000099597FD04C0F80100851185ECCF898100
:101120002196E4E00C94062B615030F02091F10000
:10113000FC0120830196F8CF289884E68093390437
:1011400008953FB7F8948091210490912204A091D2
:101150002304B091240426B5A89B05C02F3F19F0A5
:101160000196A11DB11D3FBFBA2FA92F982F882727
:10117000BC01CD01620F711D811D911D42E0660F02
:10118000771F881F991F4A95D1F70895CF92DF9254
:10119000EF92FF92D6DF6B017C01D3DF6C197D09E2
:1011A0008E099F09683E734081059105B0F3FF9059
:1011B000EF90DF90CF900895B0E0A0E0E2EEF8E08D
:1011C0000C94E42A6C017B018A018091AB01882395
:1011D00009F455C080913A04882309F450C08091E5
:1011E0002C0480FF05C08091E00082608093E000C5
:1011F000E801B12C8AEFA82E209711F4BB20C1F191
:101200006DDE811105C0AA94AA20C9F1BFDFF4CF19
:101210008C171D0611F00CF08C2F9FB7F89423E06B
:101220002093E9002091E80025FD02C09FBFE4CF94
:10123000282F30E0C21BD30BF701815020F04191E1
:101240004093F100FACFE20EF31EBB2029F08AE3AF
:101250008093E800B12CEACF8091E80085FDE6CFCD
:101260008AE38093E800BB24B3942097F9F2F2CF8D
:101270005D9884E680932B04101611063CF081E003
:1012800090E0F6019383828310E000E0C801CDB7BF
:10129000DEB7EAE00C94002B2FB7F8946091D204EB
:1012A0007091D3048091D4049091D5042FBF0895F8
:1012B000B0E0A0E0EEE5F9E00C94E42A6C017B01DB
:1012C0008B01040F151FEB015E01AE18BF08C0179C
:1012D000D10759F06991D601ED91FC910190F0810F
:1012E000E02DC6010995892B79F7C501CDB7DEB789
:1012F000EAE00C94002BFC01538D448D252F30E047
:10130000842F90E0821B930B541710F0CF96089512
:1013100001970895FC01918D828D981761F0A28D3F
:10132000AE0FBF2FB11D5D968C91928D9F5F9F7305
:10133000928F90E008958FEF9FEF0895FC01918DBB
:10134000828D981731F0828DE80FF11D858D90E028
:1013500008958FEF9FEF0895FC01918D228D892FC5
:1013600090E0805C9F4F821B91098F7399270895AD
:10137000FC01A48DA80FB92FB11DA35ABF4F2C910A
:10138000848D90E001968F739927848FA689B78901
:101390002C93A089B1898C9182748C93938D848DC8
:1013A000981306C00288F389E02D80818F7D8083A9
:1013B0000895EF92FF920F931F93CF93DF93EC0169
:1013C00081E0888F9B8D8C8D981317C0E889F989EF
:1013D000808185FF12C09FB7F894EE89FF896083F2
:1013E000E889F9898081827480839FBF81E090E0E1
:1013F000CDB7DEB7E6E00C94042BF62E0B8D10E093
:101400000F5F1F4F0F731127E02E8C8D8E110BC0B5
:101410000FB607FCFACFE889F989808185FFF5CFFF
:10142000CE01A6DFF2CFEB8DEC0FFD2FF11DE35ABD
:10143000FF4FF0829FB7F8940B8FEA89FB89808178
:101440008062D2CFCF93DF93EC01888D8823B1F0F7
:10145000AA89BB89E889F9898C9185FD03C08081BF
:1014600086FD0CC00FB607FCF7CF8C9185FFF2CF3D
:10147000808185FFEDCFCE017BDFEACFDF91CF9179
:1014800008958091CF03882319F080910201089577
:101490008091B703882319F080910001089580910D
:1014A0009F0108950F931F93F7DE00910E03109193
:1014B0000F03209110033091110360177107820709
:1014C000930770F08091010181110AC010921203FC
:1014D00081E090E090935D0680935C06109240045A
:1014E0001F910F9108958091120381110CC080917A
:1014F0000101811108C081E090E090935D06809326
:101500005C061092400408958F929F92AF92BF9212
:10151000CF92DF92EF92FF926B017C01C11481E0C8
:10152000D806E104F10421F4C12CD12C7601E39416
:10153000B3DE4B015C01A8EEB3E0A70196010E9467
:101540005C2A860E971EA81EB91E80920E039092EA
:101550000F03A0921003B0921103FF90EF90DF9061
:10156000CF90BF90AF909F908F900895CF92DF92D1
:10157000EF92FF9291DE21E0C0900A03D0900B031E
:10158000E0900C03F0900D036C157D058E059F0512
:1015900008F420E0822FFF90EF90DF90CF90089525
:1015A0004F925F926F927F928F929F92AF92BF9273
:1015B000EF92FF920F931F938090BF039090C00310
:1015C000A090C103B090C203270138014818590800
:1015D0006A087B085301420194E5891691E0990657
:1015E000A104B10408F447C08093BE03FB018081CD
:1015F0009181A2818093560690935706A093580636
:10160000E092BF03F092C0030093C1031093C203A2
:10161000C901DA01873FF9E09F07A105B10520F074
:1016200086EF99E0A0E0B0E08A3A9105A105B10506
:1016300020F48AEA90E0A0E0B0E08E0D9F1DA01F8C
:10164000B11F8093160490931704A0931804B093CD
:10165000190481E080931A048093D4031F910F91A1
:10166000FF90EF90BF90AF909F908F907F906F9082
:101670005F904F90089580E0F1CF262F30E044E056
:10168000359527954A95E1F76F702A3050F4205D23
:10169000FC0120836A3038F4605DFC0161830296AE
:1016A0000895295AF5CF695AF8CFA5E0B0E0EBE5E7
:1016B000FBE00C94EC2A9C01CB01E0E041E04E0FF2
:1016C00061E070E06C0F7D1F6E0F711DFB016AE021
:1016D00070E00E94A92A805D8083CB01E42F0097EF
:1016E00069F7D901542F552359F0515081E090E00A
:1016F0008C0F9D1F850F911DFC0180818D93F3CF71
:10170000C901840F911D2596E2E00C94082BCF931C
:10171000DF93EC01262F8A81689FC0011124EFEF2F
:10172000F0E0BF010E94A92A362F8981289FC001BD
:101730001124BF010E94A92A462F8881289FC00139
:101740001124BF010E94A92A742F832FDF91CF910A
:101750000895FC017181608182810895282F30E015
:10176000ACE7B1E00E948E2A2FEF30E040E050E07D
:101770000E946C2A80E991E0821B930B0895893CBA
:10178000910514F088EC90E00895A6E0B0E0EBEC51
:10179000FBE00C94DC2AFC0184819389992309F4F1
:1017A000BEC0C488D588E688F788908122E0422EA2
:1017B00091114180882309F450C025812983168125
:1017C0000781808550900901811151848189609041
:1017D000C40381116288808D712C8111718C2FEF6F
:1017E0003FEF992311F0228133813B832A8384A523
:1017F000882309F43FC035A53C8386A58823A9F139
:1018000027A52D8330A93E8341A982A962E18823BF
:1018100031F083A994A96AE070E00E94A92A80911E
:10182000CD039091CE032FE031E0312C212C2816EE
:1018300039060CF0E4C0F9012E5E3F4FD9015297F2
:101840008D909D90AD90BC908C149D04AE04BF040F
:10185000BCF45FEF251A350AEACF30915906398377
:1018600010915A0600915B06ACCF402F1E83298150
:101870002D83CBCF62E140E01E821D821C82CFCF40
:10188000C814D904EA04FB0461F5C082D182E28263
:10189000F38244822A813B813683258339813783D1
:1018A000108701875286638674862C8125873D8147
:1018B00036872E812787408B618B9093CE03809350
:1018C000CD0380E090E0A0E0B0E880930401909325
:1018D0000501A0930601B09307012696E2E10C945E
:1018E000F82A883091054CF752E1589F9001599F92
:1018F000300D1124215F3E4F5C01225131092A1421
:101900003B040CF080C052E1F901D90152960190DC
:101910000D925A95E1F751E0A51AB108EECF6A0190
:101920007B01FB83EA83882349F0CF01059611DF11
:101930006093590670935A0680935B06EA81FB8197
:101940008085882319F0818580930901EA81FB81D4
:101950008785882329F0808990E011DF8093030137
:10196000EA81FB818189882319F082898093C403ED
:10197000EA81FB81808D882319F0818D8093080195
:10198000EA81FB818081882379F0818180930C0139
:10199000893041F48281938197FD04C090930B01BB
:1019A00080930A011092C303EA81FB818285882318
:1019B00011F183859485A585B6850097A105B105AC
:1019C000D1F08C0D9D1DAE1DBF1D8093D003909353
:1019D000D103A093D203B093D303C092BA03D092A1
:1019E000BB03E092BC03F092BD0381E08093D4037B
:1019F00010921A0472CF80E090E0DC01E6CF8830CC
:101A000091050CF05ACF22E1229DF001239DF00DAB
:101A10001124E15FFE4FC082D182E282F3824482D0
:101A20002A813B813683258339813783108701875B
:101A30005286638674862C8125873D8136872E8168
:101A40002787408B618B019638CFCF93DF93FC01C2
:101A5000A081B1818C91803221F097EF980F953061
:101A600020F41196B183A083F3CF91E08D3209F079
:101A700090E0EB0198838D3219F08C918B3219F440
:101A80001196B183A08360E070E0CB01A081B181A9
:101A90002C9120532A3030F59D012F5F3F4F318329
:101AA0002083CC916A39D9E97D078D07D9E19D075B
:101AB000A8F4C053693929E97207820729E192071E
:101AC00011F4C63058F4AAE0B0E09B01AC010E94CA
:101AD0005C2A6C0F711D811D911DD8CF6FEF7FEFB8
:101AE000CB01D4CFDF91CF910895A3E0B0E0EBE735
:101AF000FDE00C94EC2A9B838A83BE016F5F7F4FCD
:101B0000CE010296A2DF298197FF0BC06FEF7FEF16
:101B10008FEF9FE7222371F060E070E080E090E8B3
:101B200009C0222339F090958095709561957F4F7B
:101B30008F4F9F4F2396E2E00C94082BA3E0B0E078
:101B4000E4EAFDE00C94EC2A9B838A83BE016F5F7C
:101B50007F4FCE01029679DF2981222339F09095BB
:101B60008095709561957F4F8F4F9F4F2396E2E050
:101B70000C94082BACE0B0E0E0ECFDE00C94EA2A19
:101B80008A016630710528F480E02C96E4E00C941C
:101B9000062BFC019E012F5F3F4FAC014A5F5F4F58
:101BA000819190ED980F9A3000F5082E000C990B5A
:101BB000C097D9018D939D939D01E417F50781F797
:101BC00089818295807F9B81890FF80180838D8137
:101BD0008295807F9F81890F818389858295807F0F
:101BE0009B85890F828381E0D0CF9FE9980F963043
:101BF00030F4082E000C990B87559109DACF9FEB32
:101C0000980F963008F6082E000C990BC797D1CF85
:101C10002091FC0221FD0DC02091FE02222349F0FB
:101C2000FC018491811105C0809112038150809341
:101C300012030895CF93DF93EC0123DC0E94EF059C
:101C40002BDB6C0F7D1F811D911D60930A03709328
:101C50000B0380930C0390930D03DF91CF910895B4
:101C60004FD8892B39F06091670670916806809192
:101C70006906089560915E0670915F068091600626
:101C800008953ED8892B39F060916A0670916B06F1
:101C900080916C0608956091610670916206809152
:101CA000630608952DD8892B39F060916D067091E7
:101CB0006E0680916F0608956091640670916506C6
:101CC0008091660608958E3F21F020F48D3F19F42F
:101CD000E9CFD7CFC5CF93E0899FB00111246C56CF
:101CE000764FFB013296849131979491FB01649178
:101CF000792F0895CF93DF93DA0151E0211101C0CC
:101D000050E0EC01E881EE2329F0E29FF00111247C
:101D1000E52FEF0FEC01E883FB018081882329F098
:101D2000829FC0011124852F890FEB0188838C913C
:101D3000882329F0829F90011124852F830F8C9393
:101D4000DF91CF9108958091B8019091B9010097EA
:101D500069F02091BA013091BB01A901440F551FD0
:101D6000420F531F70E060E00C94812D0895B0E0A5
:101D7000A0E0EDEBFEE00C94DE2AEC011882198263
:101D80001A821B821C821D821E821F8218868091ED
:101D9000AC01882309F467C0E090AD01F090AE017A
:101DA000E114F10409F45FC08091AF019091B0019A
:101DB000A091B101B091B2018A019B01081B190BDE
:101DC0002A0B3B0BC901B8010E94172C4B015C0187
:101DD000B70190E080E00E94152C9B01AC01C50189
:101DE000B4010E941E2D20E030E64AE657E40E942E
:101DF0007C2B6B017C010E94522C2B013C010E9428
:101E0000E42B8090B4019090B501A090B601B09001
:101E1000B701860E971EA81EB91E88829982AA82D3
:101E2000BB82A3019201C701B6010E94132B6C83F0
:101E30007D838E839F838091B301811101C084E0F3
:101E4000C82ED12CF12CE12CC501B401A7019601BB
:101E50000E94402A6C0D7D1D8E1D9F1DA7019601BD
:101E60000E94402A6887CE01CDB7DEB7E0E10C942E
:101E7000FA2ACF92DF92EF926A01E62E26E0829F45
:101E8000C001112470E060E0FB01E80FF91FEE5083
:101E9000FE4F20812F3F69F0022E000C330BF90119
:101EA000EE0FFF1FE20FF31FEE5BFB4FC082D182EC
:101EB000E2826F5F7F4F6630710531F7EF90DF9000
:101EC000CF900895CF93C0913F048091410488231F
:101ED00081F01092410481E080934004CC2381F092
:101EE00060913B0470913C0480913D0490913E04CC
:101EF0000BDB29DF0E947D06C111D4DACF91089552
:101F000022DF0E947D06FACFCF92DF92EF92CF932D
:101F10006B01E82EC0913F0480914104882381F039
:101F20001092410481E080934004CC2349F06091F9
:101F30003B0470913C0480913D0490913E04E4DAAE
:101F4000E2E4F4E0C192D192E19284E0E23DF8074C
:101F5000C9F797DA0E94EF05C111A4DACF91EF908B
:101F6000DF90CF9008952F923F924F926F927F9281
:101F70008F929F92AF92BF92CF92DF92EF92FF9299
:101F80000F931F93CF93DF93CDB7DEB76E970FB646
:101F9000F894DEBF0FBECDBF3C011A01462E0C8F58
:101FA0001D8F2E8FB0903F0480914104882381F0D3
:101FB0001092410481E080934004BB2049F060917D
:101FC0003B0470913C0480913D0490913E049CDA66
:101FD0008C8D9D8DAE8D89839A83AB832C823D82BF
:101FE0004E82CF82D886E9868A869B86AC868AA96D
:101FF0009BA9ACA98D879E87AF878DA99EA9AFA904
:10200000888B998BAA8B88AD99ADAAAD8B8B9C8B55
:10201000AD8B8BAD9CADADAD8E8B9F8BA88F21967C
:102020008DAD9EADAFAD2197898F9A8FAB8F2CEE82
:1020300031E066EE71E040EE51E0F0E0E0E0D90121
:10204000AD909D018F016F01CC0CDD1CCE0EDF1E0B
:1020500090E080E0F801E80FF91FDB01FC908F159C
:1020600024F5F301EA0DF11DA7FCFA95E491E9309E
:10207000B8F4DC01AA0FBB1FA80FB91FAC0DBD1D22
:10208000AE5BBB4FF0E07F01EE0CFF1CEE0DFF1DC1
:10209000EC0FFD1F2180328043802D923D924C92A7
:1020A000DA01EC91AE0E0196D5CF6F5F7F4F4F5F97
:1020B0005F4FB1E0223F3B0709F0C1CFB110F2D929
:1020C0006E960FB6F894DEBF0FBECDBFDF91CF91F5
:1020D0001F910F91FF90EF90DF90CF90BF90AF9046
:1020E0009F908F907F906F904F903F902F9008958A
:1020F000CF92DF92EF92FF926B017C010E94B02998
:10210000A70196010E94402AFF90EF90DF90CF90A8
:1021100008954F925F926F927F928F929F92AF92AB
:10212000CF92DF92EF920F931F93CF93DF9300D064
:1021300000D000D0CDB7DEB769837A838B839C83D0
:102140004D832801390180914104882359F110926F
:10215000410481E080934004442309F4EDC040939E
:10216000120380913F04411451046104710409F485
:10217000E7C08111E8C0C301B201C6D9A3DE8091D6
:10218000D40381110FC003E413E066E070E080E047
:1021900090E0AEDFF801619371938F01F3E00735B2
:1021A0001F0799F71092180310921703DFD988239D
:1021B00009F487C01F921F921F921F921F921F92B5
:1021C0001F921F921F921F921F921F921F921F9287
:1021D0008FEF8F9388248A947CE8972EA12CCC24AF
:1021E000CA94E7EDDE2EE12C00E010E020E040E0B4
:1021F00050E860E084E59AE0B6DE03E413E022EF05
:1022000031E00FB6F894DEBF0FBECDBFD80190E02D
:1022100080E0F901E80FF91FE081EF3F99F04D915F
:102220005C911197841795076CF44E2FEE0F550BA8
:10223000FA01EE0FFF1FE40FF51FEE5BFB4F10825C
:102240001182128201968630910519F712962A5F43
:102250003F4F52E02E323507D1F681E090E0909367
:102260001803809317038091D403811125C062E085
:1022700070E080E090E03CDF6E8362E070E080E040
:1022800090E036DF6F5F7F4F8F4F9F4F70E08E8102
:10229000F801813009F065C080819181680F791F54
:1022A000673071050CF058C0718360830E5F1F4F5B
:1022B000F3E007351F07D9F6809112038150809310
:1022C00012038091170390911803892BA9F0D9D894
:1022D0000E94EF050E944C0929813A814B815C8163
:1022E000620F731F841F951F60930A0370930B0383
:1022F00080930C0390930D03452846284728D1F579
:1023000080913F04811136C03D813111ECD8269671
:102310000FB6F894DEBF0FBECDBFDF91CF911F91F6
:102320000F91EF90DF90CF90AF909F908F907F9024
:102330006F905F904F90089582E08093120311CFC9
:10234000882309F41BCF60913B0470913C04809179
:102350003D0490913E0411CF86E090E0918380830C
:10236000A5CF80819181861B970B97FFF7CF1182B4
:1023700010829CCF97D8CBCF8F929F92AF92BF9273
:10238000CF92DF92EF92CF93C82F6A01E62EC15011
:1023900040F166E070E080E090E0AADE4B016AE088
:1023A00070E080E090E0A4DE26E0269FA001279F59
:1023B000500D1124BA016E507E4F680D791DFB013E
:1023C00080818F3F21F3082E000C990BFC01EE0F4A
:1023D000FF1FE80FF91FEE5BFB4FC082D182E28244
:1023E000D6CFCF91EF90DF90CF90BF90AF909F90DE
:1023F0008F9008952F923F924F926F927F928F927B
:102400009F92AF92CF92DF92EF92FF920F931F9322
:10241000CF93DF9300D000D0CDB7DEB790914104C9
:10242000992309F443C01092410491E09093400431
:1024300025E0829FC0011124FC01E150F64F259157
:1024400034913093020320930103309300032093CF
:10245000FF02FC01EF5FF54F24912093FE02FC0187
:10246000EE5FF54F64916093FD028D5F954FFC0127
:10247000F491F983F093FC021092FB021092FA029D
:1024800020931203F2FF2CC010923F04662341F008
:1024900070E090E080E038D880913F04811126C040
:1024A000298120FF03C04FDC0E947D068091FA0243
:1024B000811124C15BD82091010330910203811165
:1024C0008CC28091FD028111B6C280913F048111BE
:1024D000B2C28091FE02882309F41CC104D81AC13B
:1024E0006623D1F280913F04882391F260913B04EE
:1024F00070913C0480913D0490913E0405D8D0CF6A
:1025000022DC6AC2C90102969A838983F30184910D
:10251000DADB9B01482FE2E4F4E082ED94E02193C2
:10252000319341938E179F07D1F769807A8054C207
:10253000709200036092FF027092020360920103A6
:102540004BC20E947D0648C20E94410A0E94EF05CC
:1025500043C2F301F491F983F90132968491390170
:1025600094E0690E711C3196F490ADDB6B01E82E9E
:10257000F981EF2FF0E0EE50FE4FFA83E98310E08F
:1025800000E0E981FA8180818F3FF1F0282F082E49
:10259000000C330BD901AA0FBB1FA20FB31FAE5BF8
:1025A000BB4FCD92DD92EC92FF2071F0F3E08F02F1
:1025B000C0011124AC014C5B5B4FBC016D5B7B4FD8
:1025C0002F2D8E5B9B4F96DB0F5F1F4F29813A812A
:1025D0002A5F3F4F3A8329830A30110591F6FCC1E7
:1025E000F301F491F983F901329684918B833901D7
:1025F00094E0690E711C3196849165DB6B01E82EC5
:10260000EB81F981EF0FEB832B813981231709F4DB
:10261000E3C1132F1F5F6E2DA601832F2ADC1983C0
:10262000F3CFF301F491FB83F9013296849189830E
:1026300031961491390195E0690E711C319684919F
:1026400042DB6B01E82E73E040E0112311F076E0ED
:1026500043E050E0E981FB81EF0FE9832B81398171
:10266000231709F4B9C1622F6F5FE6E02E9FC00106
:102670001124FA017E171F06C1F0BCF0DF01A80F7C
:10268000B91FAE50BE4F2C912F3F69F0022E000CA7
:10269000330BD901AA0FBB1FA20FB31FAE5BBB4FF9
:1026A000CD92DD92EC923196E5CF6B83D7CF2E5F42
:1026B0003F4FF301F491F9833901F301849190E0E4
:1026C0003196E4919E2BB6DA8091FB02811103C012
:1026D000F981F093FB028091FB0281508093FB0211
:1026E000811107C0C30102969093020380930103F6
:1026F0008FDA8091FA02882309F4E3CE80910101F8
:10270000811108C081E090E090935D0680935C06A3
:10271000109240040F900F900F900F90DF91CF9187
:102720001F910F91FF90EF90DF90CF90AF909F900F
:102730008F907F906F904F903F902F900895F3016E
:102740006490712CF9013296E4917E2AF901339656
:102750006491062F10E0C90105969A83898331960A
:10276000E4911E2B0E94410A0E94EF0530E020E018
:102770006301F12CE12CC016D106E206F3065CF4ED
:10278000C901B8016C197D098E099F09B1DCC60E1B
:10279000D71EE81EF91E0E944C09C60ED71EE81E61
:1027A000F91EC0920A03D0920B03E0920C03F09240
:1027B0000D03E981FA81F0930203E0930103CF0155
:1027C00097CFC1DA7092020360920103C30190CFE8
:1027D000F301F491F983390183E0680E711CF9016A
:1027E000329684919981492F50E0FA01EE0FFF1F34
:1027F000E40FF51FEE5BFB4FFA83E98364DAE981AE
:10280000FA81608371838283E7C0F3019491390177
:10281000F3E06F0E711CF90132962491E22F25E04E
:10282000E29FF0011124E551F64FFC83EB83E92F81
:10283000F0E0EE0FFF1FEB54F64F259134913A83F1
:102840002983EB81FC81349684913DDA162F072F82
:10285000F82EEB81FC813396849135DA4B01A82E5A
:10286000EB81FC81329684912EDA6B01E82EEB81AC
:10287000FC813196849127DA1B01482EEB81FC8183
:10288000849121DAAB01682F1F921F921F921F9231
:102890001F921F921F921F921F921F921F921F92B0
:1028A000FF920F931F93242D810189819A815BDB15
:1028B0000FB6F894DEBF0FBECDBF8EC0F301F4910A
:1028C000F983390183E0680E711CF9013296849115
:1028D000FAD9AB01682F89814FDD7EC0F3011491D5
:1028E0003901F3E06F0E711CF9013296049122E474
:1028F00034E03A832983802F90E0B0E0A0E0C12E3D
:10290000D12CF12CE12CC816D906EA06FB065CF4A2
:10291000BC01CD016C197D098E099F09E9DBC60E4A
:10292000D71EE81EF91E49815A814E5F5F4F6981AB
:102930007A816F5F7F4F2C2D89819A81DBD98981C4
:102940009A8103969A838983825D9440A1F644C05C
:1029500089010E5F1F4FF301649022E434E03A8353
:102960002983662D70E090E080E061157105810596
:10297000910509F0BDDB262FE981FA813081639F43
:10298000B00111246F3F710519F010F06FEF70E086
:10299000E981FA8160838181289FC00111248F3FE2
:1029A000910519F010F08FEF90E0E981FA818183B1
:1029B0008281289FC00111248F3F910519F010F0EA
:1029C0008FEF90E0E981FA8182833396FA83E9837D
:1029D000E25DF44031F63801930139018FEF681A56
:1029E000780AF901F491F983EF2FE150E131B0F465
:1029F000F0E0E350FB4E0C94D02A5D1357139F1365
:102A000080128212A912F0121113E81305145E1439
:102A10006E14A8149812A112E113A4128091FC0262
:102A200081FF04C081E08093FA0263CE6090FF02D0
:102A300070900003D1CF0E94520A6CCEB0E0A0E0AB
:102A4000E4E2F5E10C94E52A20915C0630915D0604
:102A50002817390719F190935D0680935C0641E0D1
:102A6000409341048B30910509F4F3C1BCF58530E6
:102A7000910509F4E0C1ECF48230910509F4D8C164
:102A800084F4009709F464C0019709F467C0309397
:102A90005D0620935C06109241045BC010924104D5
:102AA000E1CF8330910509F4C6C1049781F78AE02C
:102AB000C0C18830910509F4C2C144F48630910543
:102AC00009F4BBC1079719F78BE0B3C189309105B1
:102AD00009F4B7C10A97D9F683E0ABC181319105FA
:102AE00009F4BFC1C4F48E30910509F4B6C144F4B1
:102AF0008C30910509F4AFC10D9749F689E099C171
:102B00008F30910509F4ABC1409709F660E870E891
:102B100080E8FAD91EC08431910509F4A9C14CF4AA
:102B20008231910509F4A1C1439709F0B0CF8EE03D
:102B300080C18631910509F4A8C10CF49BC18C3584
:102B4000910509F0A4CF00E010E0980140E097C1A2
:102B5000B9D9CDB7DEB7E9E00C94012B109240044F
:102B60000E944C0900913E0310913F0320914003C5
:102B7000309141036017710782079307B8F0809185
:102B80003C0390913D038130910509F481C008F424
:102B90004EC08230910509F4EDC0039709F401C1DC
:102BA00081E090E0909318038093170380911703BE
:102BB00090911803892B09F426C10E944C09609357
:102BC00013037093140380931503909316036AD82C
:102BD000D62EC72EB82E80911903CAE0C81B0C2F21
:102BE00010E02DEF2003E0011124F12CE12C4D2DFC
:102BF0005C2D6B2DE016F10664F0F701EE0FFF1F60
:102C0000EE0DFF1DEC0FFD1FE65EFC4F4081518174
:102C100062818E2D2ED93FEFE31AF30A8AE0E8167F
:102C2000F10429F70E94410A0E94EF0592CF81E04A
:102C300090E090933D0380933C036EE170E080E070
:102C400090E056DA6C5E7F4F8F4F9F4F6093380352
:102C50007093390380933A0390933B0360E170E0F3
:102C600080E090E045DA66307105D4F5D0E0C0E050
:102C70008E01000F111F0C0F1D1F065E1C4F01D887
:102C8000F8016083718382832196CA30D10581F770
:102C9000809119038F5F809319038A3008F49AC0DA
:102CA00082E090E090933D0380933C030E944C09A6
:102CB0006B017C0168E57BE180E090E019DA685700
:102CC0007C4E8F4F9F4FC60ED71EE81EF91EC09236
:102CD0003E03D0923F03E0924003F092410360CF65
:102CE00010E000E06A30710564F563E070E080E0B8
:102CF00090E0FED98B019C010D5F1F4F2F4F3F4F7E
:102D0000F12CE12C29E030E0201B310BC701880FAA
:102D1000991F8E0D9F1DEC01C65EDC4F2E153F05E1
:102D20006CF40E94410E688379838A83FFEFEF1A67
:102D3000FF0A2AE0E216F10429F7AACF0E94520EF8
:102D4000F2CFC801880F991F800F911FEC01C65E5A
:102D5000DC4F053011055CF00E94410E68837983D9
:102D60008A830F5F1F4F0A30110559F791CF0E94D8
:102D7000300EF4CF83E090E090933D0380933C03CA
:102D80006EE170E080E090E0B3D96C5E7F4F8F4FD2
:102D90009F4F609338037093390380933A03909365
:102DA0003B0380911903815080931903811112C054
:102DB00010923D0310923C030E944C096B017C0170
:102DC00060E47FE180E090E093D96053784F8F4FCB
:102DD0009F4F79CF0E944C0900913803109139031D
:102DE00020913A0330913B03DC01CB01800F911F0E
:102DF000A21FB31F80933E0390933F03A093400311
:102E0000B0934103CDCE0E944C0900911303109161
:102E100014032091150330911603601B710B820B74
:102E2000930B653671058105910508F0C6CE91CEEC
:102E300080E0E0DA8ECE81E0FCCF82E0FACF85E060
:102E4000F8CF0E948006892B11F487E0F2CF8CE046
:102E5000F0CF8DE0EECF88E0ECCF86E0EACF84E0E3
:102E6000E8CF6FEF70E080E054CE60E070E8FBCF19
:102E70008FE0DFCF04E010E020E030E044E16AEFD3
:102E800070E080E090E045D964CE80E1D2CFA1E14E
:102E9000B0E0EDE4F7E10C94DC2AE82E1B014901D7
:102EA0005A01F09009018F2D0E94AE0B8C01EFEFBB
:102EB000EE0DEF30A0F4F0E0E05AF84E0C94D02A7A
:102EC00098176F1778176F179B171E184A1A9A1AB8
:102ED000A41A6318AE18EA1833196A198319D101B4
:102EE0006D917D918C9110D86196E2E10C94F82A55
:102EF0008A3A910510F40AEA10E00E944C09680130
:102F0000F12CE12C681979098A099B09A70198011C
:102F1000220F331F441F551F0E946C2A6C157D051C
:102F20008E059F0528F4F101608171818281DBCFDC
:102F30000E94620FD9CF0E944C09C0900403D09028
:102F40000503E0900603F09007039B01AC012C19E8
:102F50003D094E095F0969017A0130E020E0C016A1
:102F6000D106E206F30670F0209103036093040398
:102F700070930503809306039093070383E0820F09
:102F800080930303E2E4F4E060E020910303260F62
:102F900038E0239FA0011124552736E5349FC00156
:102FA000359F900D1124392FA22FA074722F7072AB
:102FB00027FD28C0A11114C0292F30957723D9F0FF
:102FC00025E5290F80E03BEA3083218382836C5F13
:102FD0003396603CD1F60E94410A0E94EF0584CFEF
:102FE00071110BC03BEA349FD001359FB00D112405
:102FF0002AEA290F3B1B80E0E7CF292F2095892F54
:1030000030E0E2CFA11110C071110AC02BEA249F59
:10301000C001259F900D1124291B85E5890FF0CF54
:10302000892F809520E0D0CF8BEA891B35E5772367
:1030300019F085E5891B3AEA390FF4CF80914104F4
:10304000882359F089E090E0909309038093080366
:103050001092410481E0809340040E94B60A8823C4
:1030600009F442CFE0900803F09009034AE0E41627
:10307000F10498F40E94A30E0E947D0680913F0403
:1030800081110E94520AD1014D915D916C918E2D5A
:103090000E94390FC8010E941A0EB1E0EB1AF10824
:1030A000F7FC05C0F0920903E09208031DCF89E008
:1030B00090E090930903809308038091120381505C
:1030C0008093120311CF0E944C09681979098A096B
:1030D0009B092FEF30E02F193109032E000C440B10
:1030E000550B5695479537952795225E3F4F4F4F85
:1030F0005F4F0E946C2ACA01B9012AE030E040E02B
:1031000050E00E946C2A6B017C0110E000E0D601C7
:10311000A01BB10BB7FF04C0D6011A96A01BB10BC0
:1031200060E0A430B10564F42FEF30E00E94D62AAD
:1031300022E096958795779567952A95D1F76095C2
:10314000C1010E94870BAB01682F802F0E94390FAD
:103150000F5F1F4F0A301105D1F63DCF0E944C0979
:1031600019821A821B82681979098A099B092FEF33
:1031700030E02F193109032E000C440B550B5695E6
:10318000479537952795225E3F4F4F4F5F4F0E94DF
:103190006C2A69017A0110E0C701B60123E030E032
:1031A00040E050E00E946C2AF101672B682B692BEC
:1031B00011F0FE013196408151816281812F0E9480
:1031C000390FEFEFCE1ADE0AEE0AFE0A1F5F1A3041
:1031D00019F701CF0E944C0919821A821B826819C3
:1031E00079098A099B092FEF30E02F193109032E45
:1031F000000C440B550B5695479537952795225E45
:103200003F4F4F4F5F4F0E946C2ACA01B90124E122
:1032100030E040E050E00E946C2A4B015C0183E109
:1032200090E07C01E818F908640110E000E0FAE0A1
:103230008F169104A104B10430F4C016D10634F401
:10324000FE01319604C00E151F05D4F7F10140812F
:1032500051816281802F0E94390F0F5F1F4F0A300A
:10326000110529F7B8CE0E944C09681979098A0915
:103270009B092FEF30E02F193109032E000C440B6E
:10328000550B5695479537952795225E3F4F4F4FE3
:103290005F4F0E946C2A022F10E0C12CD12C7601C6
:1032A000C701B60129E030E040E050E00E946C2AFE
:1032B000802F820F0E94EA06AB01682F812F0E94A7
:1032C000390F20E8C20ED11CE11CF11C1F5F1A301F
:1032D00039F781CE0E944C09681979098A099B093E
:1032E0002FEF30E02F193109032E000C440B550B42
:1032F0002E7F245C3F4F4F4F5F4F0E946C2A822FDE
:103300000E94EA06F0CD0E944C096E877F87888B69
:10331000998BAFEFB0E0AF19B10926E030E00E9421
:10332000D62A9B01AC0120573E4F4F4F5F4F2A8753
:103330003B874C875D87412C70E2572E77E3672EE1
:103340007FEE772EE9EB8E2EE9E79E2EE7E3AE2E99
:10335000EEE9BE2E1D821C82D301C201882599256B
:10336000AA25BB25AC01BD0121E17695679557954E
:1033700047952A95D1F784279527A627B727AC012B
:10338000BD0135E0440F551F661F771F3A95D1F7F1
:1033900084279527A627B7279C013170CA84DB8430
:1033A000EC84FD84C20ED31EE11CF11C43E0880FA7
:1033B000991FAA1FBB1F4A95D1F7BC01CD01687F99
:1033C000877099272E853F8548895989620F731F19
:1033D000841F951FA70196010E946C2A9B01AC01D6
:1033E000D701C601B695A795979587958E839F833C
:1033F000A887B987281739074A075B0708F041C033
:10340000AFEFB0E00E945C2A2E813F81488559854C
:103410000E946C2A0C811D81000F111FAC81BD819F
:103420000A0F1B1F0E5B1B4FB901CA016F3F7105CD
:103430008105910529F020F06FEF70E080E090E0C9
:10344000C1010E94870BF8016083718382832C8104
:103450003D812F5F3F4F3D832C833FE4831A36E845
:10346000930A38ECA30A31E6B30A40EE541A49EC49
:10347000640A40E1740A8C819D81C09709F06CCF89
:10348000AACDD701C601821B930BA40BB50B9C01DF
:10349000AD01B6CF809141048823F1F01092410430
:1034A00081E08093400482E08093120380913F0486
:1034B000882351F060913B0470913C0480913D045D
:1034C00090913E040E94840A10920903109208030E
:1034D0000E94A30E0E947D060E94B60A8823F9F07E
:1034E0008091080390910903892B09F5D1014D9131
:1034F0005D916C9183E00E94BC11809108039091D2
:103500000903B1E08B27909309038093080380910E
:103510001203815080931203C8010E941A0E8091F9
:103520003F04882309F4E0CC0E94520ADDCC0E94BB
:10353000A30EE3CFBC0190E080E000E010E0980132
:1035400040E00E948910D0CC80910A0190910B013B
:1035500075DACACCDC01ED91FC9111974081518163
:10356000FB0101900020E9F73197E61BF70B4E179E
:103570005F0751F41296ED91FC91808191810E9438
:10358000882D21E0892B09F020E0822F0895CF9328
:10359000DF93FB0101900020E9F73197E61BF70B61
:1035A000EC01A881B9814D915C914E175F0749F4F8
:1035B000EA81FB81808191810E94882D21E0892B05
:1035C00009F020E0822FDF91CF910895AAE0B0E0CA
:1035D000ECEEFAE10C94DC2A9E838D8378876F836E
:1035E0005A8749878FEF9FEFFA0191838083CE013D
:1035F00007969A83898302979C838B8362E572E0A6
:103600000497C5DF8111CDC066E572E0CE01019659
:10361000BEDF8111C8C06CE572E0CE010196B7DF54
:103620008111C3C062E672E0CE010196B0DF811164
:10363000BEC068E672E0CE010196A9DF8111B9C073
:1036400060E772E0CE010196A2DF8111B4C065E7A8
:1036500072E0CE0101969BDF8111AFC06DE772E091
:10366000CE01019694DF8111AAC063E872E0CE0119
:1036700001968DDF8111A5C069E872E0CE01019647
:1036800086DF8111A0C06FE872E0CE0101967FDF76
:1036900081119BC064E972E0CE01019678DF81114F
:1036A00096C06DE972E0CE01019671DF811191C083
:1036B00068EA72E0CE0101966ADF81118CC02F802A
:1036C0003884F8E02F16310408F487C0ED80FE80BE
:1036D00047E050E060EB72E0C7010E94882D892B23
:1036E00009F07BC0F70187818D3209F445C0412C78
:1036F000512C3201439407E010E08B3211F408E0C2
:1037000010E00E0D1F1D2E0C3F1C812C912C54011E
:1037100002151305B1F1F801C1908F0180ED8C0DF8
:103720008A3078F50C2C000CDD08F0E3CF1AD108B4
:103730000D2C000CEE08FF086FEF7FE780E090E0B3
:103740006C197D098E099F092AE030E040E050E0C5
:103750000E94402A281539054A055B05CCF2AAE0EB
:10376000B0E0A50194010E945C2A4B015C018C0C25
:103770009D1CAE1CBF1CCCCF44244A94542C320157
:10378000BECF489CC001499C900D589C900D1124BF
:10379000E985FA859183808389E02A96E2E10C9499
:1037A000F82A81E0FACF82E0F8CF83E0F6CF84E018
:1037B000F4CF85E0F2CF86E0F0CF87E0EECF88E06F
:1037C000ECCF8AE0EACF8BE0E8CF8CE0E6CF8DE06B
:1037D000E4CF8EE0E2CF8FE0E0CF80E0DECFACE759
:1037E000B0E0E5EFFBE10C94DC2A8091B803909106
:1037F000B903DC01ED91FC910084F185E02D099580
:10380000892B09F453C58091B8039091B903DC0169
:10381000ED91FC910084F185E02D0995892B09F447
:1038200044C58091B8039091B903DC01ED91FC91FE
:103830000284F385E02D0995909142038D3009F0C3
:103840006DC0903618F08FE580934203E0914203FB
:10385000F0E0E95AFC4F1082109242038091570326
:10386000813209F0F8C389E3FE0131966F01DF016F
:10387000E82F1D92EA95E9F72FEF3FEF38872F8366
:103880004FEF5FEFBA01498F5A8F6B8F7C8F94E0B7
:1038900098A7F601DE01DA9601900D928A95E1F77C
:1038A00088E593E0DC010D900020E9F7CD01895512
:1038B00093408330910508F4A6CF309158032091AE
:1038C0005903303539F0432F4B7F483419F03A32E1
:1038D00009F099CF263439F0223529F0243519F032
:1038E0002A3209F090CFE0915A03E154E83108F010
:1038F0008ACFF0E0EF53FE4F4081442309F483CF99
:103900003BAF2CAF4DAF039709F4C4C180915B036B
:103910008A3309F0BFC16CE573E00DC09F3508F034
:1039200072CFE92FF0E0E95AFC4F80839F5F9093BC
:10393000420369CFB401FB018081882309F4AAC145
:103940008B014801F8018191882329F08D3319F00A
:103950008C3209F047C09801261B370BF12CE12C63
:103960008D3361F48F017F014701D7014D91CD0166
:10397000442311F04C32C1F5EE1AFF0A211531052E
:1039800041F1FE01E858FF4F71836083DE01AA58C0
:10399000BF4F11963C932E93BA83A983FC83EB838C
:1039A00068EB72E0C601D6DD882301F1AE014D5807
:1039B0005F4FB701C8010ADE882359F091E09EAF3E
:1039C0008FAFE5968EAD9FADE59722969FAF8EAFF8
:1039D0002297D4018C918C3209F0ACCFBFEF8B1AB7
:1039E0009B0AA8CF8F01ADCF7C01BECF65ED72E001
:1039F000C601B0DD8823C1F0AE014D585F4FB7015D
:103A0000C8010E94BA0D882321F381E023968FAF6D
:103A10002397E6968DAD9EADAFADE69726968DAF1A
:103A20009EAFAFAF2697D5CF6AEB72E0C60192DDAD
:103A3000882359F081E027968FAF2797C8010E940D
:103A4000052A28968FAF2897C4CF68ED72E0C6018B
:103A500081DD882371F081E029968FAF2997C80115
:103A60000E949E0D2D966CAF7DAF8EAF9FAF2D97B0
:103A7000B0CF6AEC72E0C6016DDD882359F081E0B9
:103A80002E968FAF2E97C8010E94052A2F968FAFD2
:103A90002F979FCF6DEB72E0C6015CDD882359F054
:103AA00081E060968FAF6097C8010E94052A6196F9
:103AB0008FAF61978ECF6EEC72E0C6014BDD88232D
:103AC00071F081E062968FAF6297C8010E94750D18
:103AD00066966CAF7DAF8EAF9FAF66977ACF6CEB7B
:103AE00072E0C60137DD882359F081E067968FAF19
:103AF0006797C8010E94052A68968FAF689769CFBB
:103B00006FEB72E0C60126DD8823C9F081E0A8963C
:103B10008FAFA897C8010E94052AA9968FAFA997D1
:103B2000E114F10409F455CFF8018081833719F0CD
:103B3000893609F04ECFAA968FAFAA974ACF61EC8B
:103B400072E0C60107DD882361F081E069968FAFDE
:103B50006997C8010E94052A6B969FAF8EAF6B973D
:103B600038CF65EC72E0C601F5DC882371F081E0A6
:103B70006C968FAF6C97C8010E949E0DA0966CAF9B
:103B80007DAF8EAF9FAFA09724CF68EC72E0C601E7
:103B9000E1DC882359F081E0A1968FAFA197C8019D
:103BA0000E94052AA2968FAFA29713CF6CEC72E009
:103BB000C601D0DC882371F081E0A3968FAFA39774
:103BC000C8010E94750DA7966CAF7DAF8EAF9FAFF9
:103BD000A797FFCE61ED72E0C601BCDC8823D9F067
:103BE000AE014D585F4FB701C801F0DC882309F4DE
:103BF000F0CE813008F4EDCE863028F096EF980FA5
:103C0000963008F0E6CE91E0AB969FAFAB97AC96BE
:103C10008FAFAC97DECE64ED72E0C6019BDC8823EB
:103C2000C9F0AE014D585F4FB701C8010E94BA0DEF
:103C3000882309F4CECE81E0AD968FAFAD97E6969E
:103C40008DAD9EADAFADE697E0968DAF9EAFAFAFB9
:103C5000E097BFCE67ED72E0C6017CDC882309F4F3
:103C6000B8CEC8010E949E0D41E0E1964FAFE197AA
:103C7000462F572FBC01473FF9E05F0761057105EB
:103C800020F046EF59E060E070E0E3965FAF4EAFA2
:103C9000E3979FCE81E08AAF8BAD803519F08A32F1
:103CA00009F0B1CD1CAD1A32B1F40E944C093B01B0
:103CB0004C01EDADE150E83008F0A5CDF0E0ED5954
:103CC000F14E0C94D02A781E7F1EDC1E3B1F5A1F1B
:103CD000771F981FD31F0E948006163419F4892B72
:103CE00021F791CD123509F08ECD892BF1F28BCDD4
:103CF000BC01A301CE01CE960E94C50B84CD8EAD32
:103D0000882309F444C0EFADEB96EFAFEB97E130B9
:103D100030F0E63040F08E2F8A50863020F0F2E00E
:103D2000EB96FFAFEB9729968FAD29978823A1F1EA
:103D30002D962CAC3DAC4EAC5FAC2D9723968FAD41
:103D40002397882379F1CE018D5B9F4F0E94A90BA9
:103D500069837A838B8384017301A2019101B60187
:103D6000EB968FADEB970E94D00A882309F44BCDD8
:103D70002E968FAD2E97882309F445CD2F968FADC3
:103D80002F9790E00E94BF0B809303013CCD22E06F
:103D9000EB962FAFEB97C7CF88E7282E312C412C1D
:103DA000512CCCCF8091590690915A06A0915B0678
:103DB00089839A83AB83CFCF69968FAD6997882328
:103DC00041F06B968EAD9FAD6B979093AE01809353
:103DD000AD01A1968FADA197882341F0A2968FAD3A
:103DE000A297811101C084E08093B3016C968FADDE
:103DF0006C978823E1F1A0968CAD9DADAEADBFADC3
:103E0000A097860D971DA81DB91D8093AF019093B3
:103E1000B001A093B101B093B201A3968FADA39767
:103E2000882371F0A7968CAD9DADAEADBFADA797C1
:103E30008093B4019093B501A093B601B093B701FC
:103E400081E02091AD013091AE01232B09F480E097
:103E50008093AC0180E090E0A0E0B0E880930401A2
:103E600090930501A0930601B0930701CCCC80E0AC
:103E700090E0DC01C6CF2E968FAD2E97882371F08F
:103E80002F968FAD2F9790E00E94BF0B8093030178
:103E900091E09093CF0380930201B5CCA8968FADAB
:103EA000A897882321F0A9968FADA997ECCF809190
:103EB0000301E9CFA8968FADA897A9962FADA99732
:103EC000811101C020E03AEF3203C00111246FEFED
:103ED00070E00E94BD2A6A5F7F4FE3E4F3E087E56C
:103EE00093E0619371938E179F07D9F78CCC109252
:103EF000D40310921A041092AC011092CE031092C7
:103F0000CD038FEF9FEF90930E0180930D0180E022
:103F100090E0A0E0B0E88093040190930501A093A5
:103F20000601B09307011092CF030E94620F6BCC81
:103F3000AA968FADAA978337C1F481E08093D4030A
:103F40001092C3036092BA037092BB038092BC03C9
:103F50009092BD031092CE031092CD038FEF9FEF8E
:103F600090930E0180930D0175CF893609F04BCCEB
:103F70001092D4031092CE031092CD038FEF9FEFD7
:103F800090930E0180930D0180E090E0A0E0B0E8F6
:103F90008093040190930501A0930601B09307015B
:103FA0001092CF0330CC8CAD863419F0823509F0F5
:103FB0002ACC91E2998390E59A838B83EAEDF2E033
:103FC000CE0104962191222321F0DC012D93CD0115
:103FD000F9CF60910C0170E00E94550BEFEEF2E01A
:103FE0002191222321F0DC012D93CD01F9CF6091A5
:103FF00059060E943D0B60915A060E943D0B60914C
:104000005B060E943D0BE3EFF2E02191222321F0B9
:10401000DC012D93CD01F9CF6091AD017091AE011E
:104020000E94550B2DE0FC01208311828091B80382
:104030009091B903F60101900020E9F73197AF01A3
:104040004C195D09DC01ED91FC910280F381E02DBA
:10405000B6010995D8CB07E513E0F80101900020DF
:10406000E9F78F0108551340023008F4CCCB282F14
:10407000082E000C330B205331092A30310508F08B
:10408000C2CB898320915803822F022E000C990BFA
:10409000C09711E00A9710F42A8312E0E1E0F0E003
:1040A000EC0FFD1FE10FF11D1082CE0101960E9461
:1040B000052A7C01101708F0A6CB1F5FC12ED12C5A
:1040C000101798F5C601895A9C4FFC0121912C3795
:1040D00051F1022E000C330B205331092A303105E7
:1040E00008F091CB1F5F101788F310E000E00E94EA
:1040F000052A5C010023D9F0812F90E0885A9C4F5B
:104100000E94052AED969FAF8EAFED97F601EA5A11
:10411000FC4F8081843421F084F4813409F073CB26
:1041200081E090E063C001E0E2CF00E0EFCFED96E8
:104130001FAE1EAEED9701E0E9CF803509F459C0FE
:10414000843509F060CB002309F45DCBE114F10460
:1041500089F4ED962EAD3FADED97232BF1F410923F
:104160003F0410923B0410923C0410923D041092C4
:104170003E0426C00E948006892B21F034E0E3161D
:10418000F10439F30E948006892B09F03CCB85E0CD
:10419000E816F10409F037CBDCCF81E080933F04CF
:1041A000ED96EEADFFADED97CF01FF0FAA0BBB0B68
:1041B00080933B0490933C04A0933D04B0933E0451
:1041C0000E948006892B21F0F4E0EF16F10469F0DB
:1041D0000E948006892B29F0E114F10409F013CB29
:1041E00004C025E0E216F104B9F7C5010E941E15CE
:1041F0000ACB002309F407CB31E0E316F10481F187
:104200007CF4E114F10409F0FECAA114B104F1F444
:104210001092010160E090E080E00E94322AF3CA2F
:1042200092E0E916F10479F1A3E0EA16F10409F04D
:10423000EACAA114B10409F4B3CE81E08093CF039C
:1042400029ECA216B10474F188EC25CEB1E0AB16CE
:10425000B10409F0D8CA81E08093010161E0DBCFAD
:10426000A114B10431F41092B70360E081E090E052
:10427000D4CFE1E0AE16B10409F0C5CA81E0809365
:10428000B70361E0F3CFF9ECAF16B10444F088EC6A
:10429000809300016091000182E090E0BECFA09287
:1042A0000001F8CFA0920201AECA7894C458DF4F43
:1042B000E2E10C94F82A1F920F920FB60F9211248C
:1042C0008F939F938091E1009091E100937F909371
:1042D000E10083FF0FC01092E90091E09093EB00A2
:1042E0001092EC0092E39093ED0010923A0498E063
:1042F0009093F00082FF22C093E09093E9009091A8
:10430000F200992319F09AE39093E80090912B041E
:10431000992341F090912B04915090932B0491118B
:1043200001C05D9A90913904992341F0909139042C
:10433000915090933904911101C0289A84FF18C0BC
:104340008091E2008E7E81608093E2008091E100A6
:104350008F7E8093E10080912C048E7E806180931B
:104360002C049F918F910F900FBE0F901F90189566
:1043700080FFF7CF8091E2008E7E80618093E20023
:104380008091E1008E7E8093E10080912C048E7EEE
:104390008160E5CF1F920F920FB60F921124CF923A
:1043A000DF92EF92FF920F931F932F933F934F93C0
:1043B0005F936F937F938F939F93AF93BF93EF938D
:1043C000FF93CF93DF93CDB7DEB76C97DEBFCDBF42
:1043D0001092E9008091E80083FF25C068E0CE01DB
:1043E00045960E94940882EF8093E8008D8987FFAC
:1043F00039C09091E80090FFFCCF982F907609F09B
:1044000034C19E894F89588D2F89F88C911131C004
:10441000803861F580912A048093F1001092F100B8
:104420008EEF8093E8006C960FB6F894DEBF0FBE57
:10443000CDBFDF91CF91FF91EF91BF91AF919F9150
:104440008F917F916F915F914F913F912F911F912C
:104450000F91FF90EF90DF90CF900F900FBE0F90D5
:104460001F9018959EEF9093E800C7CF1092F1002F
:10447000D5CF913059F48111D3CF4130510581F618
:1044800080912A048D7F80932A04CACF933049F407
:104490008111C6CF4130510519F680912A048260FE
:1044A000F2CF953041F48091E80080FFFCCF206886
:1044B0002093E300B5CF963009F0A9C00B8D1C8D79
:1044C00022E01092E9001092280410922704F212C0
:1044D0002EC010922604109225040E9468081F82A4
:1044E00099E09983FA8291E09E8390EA98879AEF07
:1044F00099872091270430912804275F3F4F3C8300
:104500002B838D831092E9001092280410922704C7
:10451000109326040093250449E050E0BE016F5F2C
:104520007F4F80E00E9447080E94680879CF10936F
:104530002604009325040E947F07DC0112960D914A
:104540001C910115110509F451C1D801ED91FC919F
:104550000480F581E02DBE016B5E7F4FC801099597
:10456000009709F03EC1F80100851185EACFF3E01C
:10457000FF120EC08F89882309F440C0823061F495
:1045800040E862E18DE09BE00E941A08811148CF6B
:1045900081E28093EB0047CF813029F440E868E066
:1045A00084E09BE0F1CF833099F70E947F07DC0124
:1045B0001296ED90FC908E010F5F1F4F6801E11481
:1045C000F10479F0D701ED91FC910680F781E02D9F
:1045D000B801C7010995080F111DF701E084F184A6
:1045E000EECFD8011C92F60101900020E9F7319737
:1045F000BF016C197D0940E0C601C6CF6EEE7AE0BE
:10460000FB01449150E080E80E94470809CF9730B1
:1046100009F4BECF983021F481E08093F10000CFFF
:10462000993009F0FDCE837009F0B2CFEAEDF1E0E8
:1046300081E09191992381F08093E90091E090933A
:10464000EB00DF0111979C919093EC0096E390931F
:10465000ED008F5F873069F78EE78093EA00109254
:10466000EA008F8980933A04DBCE8B8D9C8D10926B
:10467000E900109228041092270490932604809356
:104680002504898D811192C08E899D89913A49F4C2
:10469000813209F07DCF47E050E064EA71E080E0CC
:1046A000B3CF913209F074CF833269F48F89988D3A
:1046B000B0E0A0E08093A0019093A101A093A2019B
:1046C000B093A301ADCE803269F48091E80082FFFF
:1046D000FCCF67E084EA91E00E9494088BEF80931E
:1046E000E8009ECE823209F09BCE8F898093AB0189
:1046F000EEEFFFE7859194918B3F9C4D51F1E0E007
:10470000F8E08091A4019091A501A091A601B0913B
:10471000A701803B9440A105B105F1F48091AB0164
:1047200080FD1AC0EE3F8AE0F80789F587E797E732
:1047300091838083809160008093290488E19BE0CD
:104740000FB6F894A895809360000FBE9093600018
:1047500067CEEEEFFAE0D5CF80819181873797471A
:1047600009F05ECEA895809160008861809360001A
:104770008091290480936000EE3F2AE0F20789F0DF
:104780008091FE0A9091FF0A9183808349CE8081B7
:1047900091818737980751F29093FF0A8093FE0A20
:1047A000C5CF1092FF0A1092FE0A3ACE0E947F07F0
:1047B000DC0112960D911C910115110509F4E8CE4A
:1047C000D801ED91FC910190F081E02DBE016B5E6E
:1047D0007F4FC8010995811123CEF801008511850D
:1047E000EBCF181619060CF41BCED2CEF1E0FF1257
:1047F000BECE62EF7AE004CF1F920F920FB60F92F7
:1048000011242F933F938F939F93AF93BF938091E6
:10481000D2049091D304A091D404B091D5043091E6
:10482000200423E0230F2D3758F50196A11DB11D5B
:10483000209320048093D2049093D304A093D404B3
:10484000B093D5048091210490912204A091230477
:10485000B09124040196A11DB11D80932104909371
:104860002204A0932304B0932404BF91AF919F919D
:104870008F913F912F910F900FBE0F901F90189521
:1048800026E8230F0296A11DB11DD2CF1F920F92D1
:104890000FB60F9211242F933F934F935F936F9313
:1048A0007F938F939F93AF93BF93EF93FF9389EB86
:1048B00095E00E94B809FF91EF91BF91AF919F9150
:1048C0008F917F916F915F914F913F912F910F90B9
:1048D0000FBE0F901F9018951F920F920FB60F9258
:1048E00011242F938F939F93EF93FF93E091C9052A
:1048F000F091CA058081E091CF05F091D00582FD4D
:104900001BC090818091D2058F5F8F732091D3055A
:10491000821741F0E091D205F0E0E754FA4F958F0D
:104920008093D205FF91EF919F918F912F910F90DE
:104930000FBE0F901F9018958081F4CFE9E6F5E047
:104940001382128288EE93E0A0E0B0E08483958326
:10495000A683B78322E332E0318320832FEF3FEF3A
:1049600035872487E9EBF5E01382128284839583EF
:10497000A683B78384E492E0918380838DEC90E0FA
:10498000958784878CEC90E09787868788EC90E009
:10499000918B808B89EC90E0938B828B8AEC90E0FA
:1049A000958B848B8EEC90E0978B868B118E128E7C
:1049B000138E148EEDE6F6E0108211828FEF828363
:1049C000EAE6F6E0808311821282E7E6F6E01082E2
:1049D00011821282E4E6F6E0108281831282E1E61F
:1049E000F6E098EC90839AEA91831282EEE5F6E085
:1049F00010821182128221E030E030935D06209314
:104A00005C06E9E5F6E0108211828283E6E5F6E0D5
:104A10008083818382830895ADE0B0E0E1E1F5E237
:104A2000CBC5789484B5826084BD84B5816084BD33
:104A300085B5826085BD85B5816085BD80916E003C
:104A4000816080936E00109281008091810082606D
:104A500080938100809181008160809381008091AA
:104A600080008160809380008091910082608093BB
:104A700091008091910081608093910080919000DD
:104A80008160809390008091C10084608093C10018
:104A90008091C10082608093C1008091C1008160DB
:104AA0008093C1008091C30081608093C300809196
:104AB000C00082608093C0008091C20081608093BA
:104AC000C20080917A00846080937A0080917A009D
:104AD000826080937A0080917A00816080937A006E
:104AE00080917A00806880937A0010923A04109244
:104AF0002A0410922C048091D70081608093D70003
:104B000080EA8093D80089B5806189BD89B58260CB
:104B100089BD09B400FEFDCF0E94C6088091D8006F
:104B20008F7C80618093D8008091E000807F8093AB
:104B3000E0008091E1008E7E8093E1008DE0809323
:104B4000E200559A209A82E494E09093B901809310
:104B5000B80180E390E09093BB018093BA01549A2E
:104B60005C98EBE5FBE02491ECE3FBE08491882387
:104B7000C9F090E0880F991FFC01EE56F54F459162
:104B80005491FC01EC57F54FA591B4919FB7F8945F
:104B9000FA013081822F809583238083EC91E22B70
:104BA000EC939FBF0E94410A8093BC01E091C9052C
:104BB000F091CA0582E08083E091C505F091C605B9
:104BC0001082E091C705F091C8058FEC80831092A8
:104BD000D105E091CD05F091CE0586E08083E0918E
:104BE000CB05F091CC05808180618083E091CB057D
:104BF000F091CC05808188608083E091CB05F091B5
:104C0000CC05808180688083E091CB05F091CC0554
:104C100080818F7D808389EB95E09093B9038093A9
:104C2000B80390E080E016D481115CC010920101BD
:104C300081E090E00FD481115BC01092B70382E055
:104C400090E008D4809300010E944C0900911C045C
:104C500010911D0420911E0430911F046B017C01F2
:104C6000C01AD10AE20AF30A970186010A31110536
:104C70002105310508F4BCC260931C0470931D0427
:104C800080931E0490931F048091D4038823F1F035
:104C90000E944C094B015C018091D0039091D1039B
:104CA000A091D203B091D3030097A105B10531F1D2
:104CB000A5019401281B390B4A0B5B0BDA01C901D2
:104CC000B7FD1CC01092D4031092CF038091400412
:104CD000882309F4E5C280915C0690915D060E94EC
:104CE0001E1509C2813009F0A3CF80930101A0CF26
:104CF000813009F0A4CF8093B703A1CF8091AC019C
:104D0000882309F4FEC00091CD031091CE03101644
:104D100011060CF0F6C0B501A401CE0101960E9467
:104D2000B70EC980DA80EB80FC80EFE0F1E030E084
:104D300020E0C90101974081518162817381C416CD
:104D4000D506E606F70644F002967296081719078C
:104D500009F46AC29C01EDCF8F3F980709F46EC039
:104D600020910D0130910E012817390709F466C012
:104D700090930E0180930D01A2E1A89FF001A99FDD
:104D8000F00D1124E15FFE4F4081518162817381FA
:104D90004093C9035093CA036093CB037093CC0331
:104DA0009C012F5F3F4F201731070CF03FC2A29F9D
:104DB000F001A39FF00D1124E15FFE4F408151816E
:104DC000628173814093C5035093C6036093C70308
:104DD0007093C80322E1289FF001299FF00D112450
:104DE000E15FFE4F248120930C01293041F425819D
:104DF000368137FD04C030930B0120930A0122E174
:104E0000289F8001299F100D1124C8018A5E9E4FA2
:104E10000E94A90B6093590670935A0680935B0613
:104E2000F801E15FFE4F82858093090183858093BD
:104E3000C4038485809308011092C3038091040108
:104E400090910501A0910601B0910701C816D906FD
:104E5000EA06FB0609F455C0C0920401D092050190
:104E6000E0920601F092070140910D0150910E0170
:104E700057FD47C082E1849FF001859FF00D11240A
:104E8000E15FFE4F85858823E1F18485823041F022
:104E9000813009F40EC2843009F40BC2833089F5E5
:104EA00082E1849FF001859FF00D1124E15FFE4FA8
:104EB000218964EB462E512C612C712C222331F078
:104EC00030E0AAE0B0E02AD32B013C0182E1849FCC
:104ED0008001859F100D1124C801835E9E4F0E94A2
:104EE000A90B6A877B878C87F801E15FFE4F8501FC
:104EF0007401A3019201BE01665F7F4F85850E9408
:104F0000D00A10910301C0901A04CD86C110D5C0FB
:104F10008091AC01882309F4D0C03090C4033320C1
:104F200009F4CBC000910801002309F4C6C0B50103
:104F3000A401CE0101960E94B70E80910D019091BF
:104F40000E0197FD78C1C090C503D090C603E090D4
:104F5000C703F090C8038090C9039090CA03A09043
:104F6000CB03B090CC038C149D04AE04BF040CF0B2
:104F700062C169817A818B819C81681979098A096A
:104F80009B0955D42B013C01C701B6016819790969
:104F90008A099B094CD49B01AC01C301B201ACD37B
:104FA0006B017C012984023049F0013011F004309A
:104FB00011F4222019F0033009F050C12D813E81F7
:104FC0004F81588560E070E080E89FE32CD39B011F
:104FD000AC0134D52B013C01632D70E090E080E002
:104FE00024D44B015C01211011C026E636E646EAC6
:104FF0005FE3C301B20122D52B013C0120E030E088
:1050000040E85FE317D518160CF457C10330F1F4EC
:1050100020E030E0A901C701B6016AD387FD0FC1C6
:1050200020E030E040E85FE3C701B60103D5181681
:1050300034F4C12CD12C40E8E42E4FE3F42EA70128
:105040009601C301B201FAD42B013C01A3019201E4
:10505000C501B401F3D44B015C0120E030E0A901AB
:1050600047D387FDF0C020E030E04FE753E4C501AF
:10507000B401E0D418160CF4EAC0C501B401A9D3F8
:10508000062FEFEFF0E0AF0143195109212F30E077
:10509000429FC001439F900D529F900D1124BF016C
:1050A00058D2AB01261B370B029FC001039F900D06
:1050B0001124BF014ED2162F140F01E00093CF032D
:1050C000812F90E00E94BF0B80930201DD84DD20E0
:1050D00009F4C6C02091BF033091C0034091C103C1
:1050E0005091C2038091BE03811101C082E066E548
:1050F00076E00E944717E0911104F0E0EE0FFF1FE9
:10510000EB52FC4F20813181809112049091130465
:10511000A0911404B0911504821B930BA109B1094D
:105120008093120490931304A0931404B093150475
:10513000E1EAFAE0E49190917B008E2F880F880FCE
:1051400080729F7D892B80937B00E770E064E09301
:105150007C0080917A00806480937A0080917A004C
:1051600086FDFCCFA0917800B091790028EC30E06A
:105170001DD220E034E040E050E082D18091110463
:10518000E82FF0E0EE0FFF1FEB52FC4F318320833E
:1051900044275527C0901204D0901304E0901404C3
:1051A000F0901504C20ED31EE41EF51EC092120428
:1051B000D0921304E0921404F09215048F5F6EE114
:1051C000BCD190931104C701B6012EE130E040E05C
:1051D00050E082D180911B04281708F468C0E22EA9
:1051E000E81A8E2D833020F020931B0420939F011A
:1051F00080911A048823A9F00E944C09009116049A
:10520000109117042091180430911904601B710B40
:10521000820B930B97FD05C010921A0481E08093D6
:1052200041040E94EF1B10CDC9019ACD415F584D3A
:105230006F4F7F4FC7CDC12CD12C7601B3CEC12C7F
:10524000D12C7601FCCE812C912C540116CF812CCF
:10525000912C3FE7A32E33E4B32E0FCF00E011CF04
:1052600010910C018091C303181771F00093410451
:105270001093C3030E944C096093BA037093BB035D
:105280008093BC039093BD032091BA033091BB037C
:105290004091BC035091BD0369E576E0812F29CF91
:1052A00081E090E090935D0680935C0618CD821BB0
:1052B00099CF8985811125CEF3CD033009F0D3CE66
:1052C000412C512C50E8652E5FE3752EA1CE8F92B4
:1052D0009F92AF92BF92CF92DF92EF92FF92CF93C5
:1052E000DF93EC01688179818A819B816115710569
:1052F0008105910521F464E279ED8BE597E02DE1DC
:1053000033EF41E050E0BCD049015A019B01AC01B0
:10531000A7EAB1E4D1D06B017C01ACEEB4EFA501FA
:105320009401D6D0C60ED71EE81EF91EF7FE06C0A1
:1053300081E0C81AD108E10880E8F80AC882D98259
:10534000EA82FB82C701B6019F77DF91CF91FF9080
:10535000EF90DF90CF90BF90AF909F908F90089587
:105360008F929F92AF92BF92CF92DF92EF92FF9275
:105370006091BD017091BE018091BF019091C0010B
:10538000611571058105910521F464E279ED8BE5E4
:1053900097E02DE133EF41E050E072D049015A012E
:1053A0009B01AC01A7EAB1E487D06B017C01ACEEB4
:1053B000B4EFA50194018CD0C60ED71EE81EF91ECD
:1053C000F7FE06C081E0C81AD108E10880E8F80AB3
:1053D000C092BD01D092BE01E092BF01F092C00127
:1053E000C701B6019F77FF90EF90DF90CF90BF90FD
:1053F000AF909F908F9008956093BD017093BE0110
:105400008093BF019093C0010895FC0188279927DC
:10541000E89421912032E9F3293010F02E30C8F3BE
:105420002B3239F02D3231F4689403C00BD0820F47
:10543000911D219120532A30C8F31EF49095819537
:105440009F4F08957AE0979F902D879F802D910D13
:1054500011240895F999FECF92BD81BDF89A99273C
:1054600080B50895262FF999FECF1FBA92BD81BD50
:1054700020BD0FB6F894FA9AF99A0FBE01960895D6
:10548000052E97FB16F400940FD057FD05D024D0BD
:1054900007FC02D046F408C0509540953095219500
:1054A0003F4F4F4F5F4F0895909580957095619550
:1054B0007F4F8F4F9F4F089531D0A59F900DB49F80
:1054C000900DA49F800D911D11240895B7FFF4CF76
:1054D000F3DF821B930B0895A1E21A2EAA1BBB1BBC
:1054E000FD010DC0AA1FBB1FEE1FFF1FA217B307B0
:1054F000E407F50720F0A21BB30BE40BF50B661FC6
:10550000771F881F991F1A9469F760957095809589
:1055100090959B01AC01BD01CF010895A29FB00100
:10552000B39FC001A39F700D811D1124911DB29FD7
:10553000700D811D1124911D0895991B79E004C0FF
:10554000991F961708F0961B881F7A95C9F78095C2
:105550000895AA1BBB1B51E107C0AA1FBB1FA617BA
:10556000B70710F0A61BB70B881F991F5A95A9F70C
:1055700080959095BC01CD01089597FB072E16F4F8
:10558000009406D077FD08D0E4DF07FC05D03EF498
:10559000909581959F4F0895709561957F4F0895DF
:1055A000EE0FFF1F0590F491E02D0994B7DFB7FFD0
:1055B0000895821B930B08952F923F924F925F9212
:1055C0006F927F928F929F92AF92BF92CF92DF9213
:1055D000EF92FF920F931F93CF93DF93CDB7DEB778
:1055E000CA1BDB0B0FB6F894DEBF0FBECDBF09940C
:1055F0002A88398848885F846E847D848C849B8463
:10560000AA84B984C884DF80EE80FD800C811B8170
:10561000AA81B981CE0FD11D0FB6F894DEBF0FBE9F
:10562000CDBFED0108955058BB27AA270ED0B1C1B8
:10563000A2D130F0A7D120F031F49F3F11F41EF435
:1056400097C10EF4E095E7FB64C1E92FB3D180F375
:10565000BA17620773078407950718F071F49EF56F
:10566000E2C10EF4E0950B2EBA2FA02D0B01B9016B
:1056700090010C01CA01A0011124FF27591B99F0C8
:10568000593F50F4503E68F11A16F040A22F232FD4
:10569000342F4427585FF3CF469537952795A79524
:1056A000F0405395C9F77EF41F16BA0B620B730BCB
:1056B000840BBAF09150A1F0FF0FBB1F661F771F3C
:1056C000881FC2F70EC0BA0F621F731F841F48F4F1
:1056D000879577956795B795F7959E3F08F0B3CF77
:1056E0009395880F08F09927EE0F97958795089561
:1056F000ECD008F481E008950CD04BC143D140F0C8
:105700003AD130F021F45F3F19F003C151118CC13F
:105710002FC150D198F39923C9F35523B1F3951BA9
:10572000550BBB27AA2762177307840738F09F5FC2
:105730005F4F220F331F441FAA1FA9F333D00E2E31
:105740003AF0E0E830D091505040E695001CCAF79E
:1057500029D0FE2F27D0660F771F881FBB1F261763
:1057600037074807AB07B0E809F0BB0B802DBF0136
:10577000FF2793585F4F2AF09E3F510568F0C9C03C
:1057800053C15F3FECF3983EDCF3869577956795C0
:10579000B795F7959F5FC9F7880F911D96958795E7
:1057A00097F90895E1E0660F771F881FBB1F621706
:1057B00073078407BA0720F0621B730B840BBA0BC4
:1057C000EE1F88F7E095089504D06894B1112CC1BC
:1057D0000895F8D088F09F5790F0B92F9927B751C6
:1057E000A0F0D1F0660F771F881F991F1AF0BA95A5
:1057F000C9F712C0B13081F016D1B1E0089513C1DC
:10580000672F782F8827B85F39F0B93FCCF386959A
:1058100077956795B395D9F73EF4909580957095F7
:1058200061957F4F8F4F9F4F0895E89409C097FB74
:105830003EF490958095709561957F4F8F4F9F4F67
:105840009923A9F0F92F96E9BB279395F6958795AB
:1058500077956795B795F111F8CFFAF4BB0F11F46E
:1058600060FF1BC06F5F7F4F8F4F9F4F16C0882315
:1058700011F096E911C0772321F09EE8872F762F4B
:1058800005C0662371F096E8862F70E060E02AF08C
:105890009A95660F771F881FDAF7880F9695879578
:1058A00097F90895A9D080F09F3740F491110EF038
:1058B000BBC060E070E080E89FEB089526F41B1603
:1058C000611D711D811D2BC045C0990F0008550F2A
:1058D000AA0BE0E8FEEF16161706E807F907C0F076
:1058E00012161306E407F50798F0621B730B840B7E
:1058F000950B39F40A2661F0232B242B252B21F458
:1059000008950A2609F4A140A6958FEF811D811DF7
:10591000089597F99F6780E870E060E00895882314
:1059200071F4772321F09850872B762F07C06623D8
:1059300011F499270DC09051862B70E060E02AF099
:105940009A95660F771F881FDAF7880F96958795C7
:1059500097F908959F3F31F0915020F487957795FE
:105960006795B795880F911D9695879597F9089536
:105970009FEF80EC089500240A9416161706180667
:105980000906089500240A94121613061406050643
:105990000895092E0394000C11F4882352F0BB0FD4
:1059A00040F4BF2B11F460FF04C06F5F7F4F8F4F37
:1059B0009F4F089557FD9058440F551F59F05F3F72
:1059C00071F04795880F97FB991F61F09F3F79F021
:1059D00087950895121613061406551FF2CF4695A3
:1059E000F1DF08C0161617061806991FF1CF869525
:1059F0007105610508940895E5DFA0F0BEE7B917C9
:105A000088F4BB279F3860F41616B11D672F782FD6
:105A10008827985FF7CF869577956795B11D939501
:105A20009639C8F30895E894BB2766277727CB01FA
:105A300097F908954ADF08F48FEF08950BD0A9CFA6
:105A40009ADF28F09FDF18F0952309F062CF90CFFE
:105A50001124EACFAFDFA0F3959FD1F3950F50E06B
:105A6000551F629FF001729FBB27F00DB11D639F10
:105A7000AA27F00DB11DAA1F649F6627B00DA11DB6
:105A8000661F829F2227B00DA11D621F739FB00D5C
:105A9000A11D621F839FA00D611D221F749F3327CC
:105AA000A00D611D231F849F600D211D822F762F65
:105AB0006A2F11249F5750408AF0E1F088234AF062
:105AC000EE0FFF1FBB1F661F771F881F91505040AE
:105AD000A9F79E3F510570F01CCFA6CF5F3FECF3B6
